:400000000080002011000000ED150000ED15000008B5044B1A6803F53F5302331A6001F0EDFA00BFFA46004010B5054C237833B9044B13B10448AFF300800123237010BD8B
:40004000E882FF1F000000007C400000084B10B51BB108490848AFF300800848036803B910BD074B002BFBD0BDE81040184700BF00000000EC82FF1F7C400000C880FF1F48
:400080000000000008B5002001F0D4FC08BD00BF684620F007018D4619B572B6EFF311841E4B1B68DBB20F2B10D9103B23F0030202F1604202F564421168DB0003F0180385
:4000C000E0229A400A4022FA03F306E00F2B03D1134B1B681B0E00E0002383F31188114A136801331360012B01D103F06DFD62B6FFF7C8FF72B684F3118801F0EDFE094AA4
:400100001368013B13601BB903F067FD03F02BFD62B6BDE819408546704700BF04ED00E020ED00E09C9EFF1F08B562B60A4A0B4B1A600B4A136843F002031360002000F05E
:4001400067F90121074800F087FE074B1860002002F014F8FBE700BF3F19010014E000E010E000E080400000F08AFF1F08B50A4801F0A2F800F0DCFF02F070F8074A1368D0
:4001800043F005031360012001F092FA052001F08FFA02F03BF808BD1C8AFF1F10E000E000B583B000230193012001F08DFD01A9052001F0CBFC019801F098FC0248014665
:4001C0006A3801F085F8EFE7868AFF1F08B5012000F0C8FF0349044801F07AF802F016F808BD00BF8C4000001C8AFF1F08B5022000F0B8FF0349044801F06AF802F006F8E6
:4002000008BD00BFCC4000001C8AFF1F00BFFDE708B5024801F088F808BD00BF1C8AFF1F684620F007018D4619B572B6EFF311841E4B1B68DBB20F2B10D9103B23F0030202
:4002400002F1604202F564421168DB0003F01803E0229A400A4022FA03F306E00F2B03D1134B1B681B0E00E0002383F31188114A136801331360012B01D103F0A5FC62B67B
:40028000FFF7C6FF72B684F3118801F025FE094A1368013B13601BB903F09FFC03F063FC62B6BDE819408546704700BF04ED00E020ED00E09C9EFF1F08B5024801F04CF85D
:4002C00008BD00BF1C8AFF1F684620F007018D4619B572B6EFF311841E4B1B68DBB20F2B10D9103B23F0030202F1604202F564421168DB0003F01803E0229A400A4022FADB
:4003000003F306E00F2B03D1134B1B681B0E00E0002383F31188114A136801331360012B01D103F051FC62B6FFF7C6FF72B684F3118801F0D1FD094A1368013B13601BB9E1
:4003400003F04BFC03F00FFC62B6BDE819408546704700BF04ED00E020ED00E09C9EFF1F08B50121002002F089FA02F0BFFA08B102F0E0FB08BD00BF38B50546144602F02B
:40038000BBFA20B102F0B2FA08B102F0D3FB02F0ADFA50B102F042FC20B1284602F056FC206004E00023236001E000232360002038BD00BF70B506460D46144602F09CFA48
:4003C00020B102F093FA08B102F0B4FB02F08EFA80B102F0AFFB02F02DFC40B1402D00D94025A9B2304602F0F1FB256004E00023236001E000232360002070BD00B583B0DB
:4004000001A801F001FD019803B05DF804FB00BF10B584B0044600230393FFF7A1FF1F4800F00CFD1E4B1860022C26D104AA002342F8043D082101A8FFF79EFF044610B111
:40044000692000F07DFB9CB9039B082B10D101A800F00CFA60B19DF80430012B05D19DF80530012B01D100F007FE01A800F004FC0C4B1B68002BD9D00EE0012C0AD100F01F
:40048000FBFD01238DF804308DF8053001A800F0F3FB01E000F0F0FD04B010BDD84000007C9EFF1F3083FF1F08B5214B1A68214B1B689A4209D91E4B1B6813B1652000F049
:4004C0003FFB1B4B1A681B4B1A601B4B1A68194B5B689A4209D9184B1B6813B1672000F02FFB154B1A68134B5A60144B1A68114B9B689A420AD9114B1B68192B02D9662065
:4005000000F01EFB0D4B1A680A4B9A600C4B1A68084BDB689A4209D9094B1B6813B1682000F00EFB064B1A68024BDA6008BD00BF2083FF1F0483FF1F2883FF1F2483FF1F6E
:400540002C83FF1F00B585B004AA002342F80C3D08210DEB0100FFF70FFF48B9019B082B06D102A800F082F910B102A800F084FB0023019300F0F0FA01900028E4D1FFF7BF
:4005800093FF01F043FE05B05DF804FB014B1868704700BF041000E001300E4B184003D5013860F001000130002308E00130094B184003D5013860F0010001300B46064AA7
:4005C00032F8302012B1591C012BEFDD0AB14FF0FF30704701000080809EFF1F30B4EFF31082012383F310880B4901EBC00440F6C4136380094D2D6803FB00536360002314
:4006000021F8303006490B6803F6C4130B6082F3108830BC704700BF809EFF1F1483FF1FCC80FF1F30B41A4B93F904300133194A134003D5013B63F0010301335BB20021BA
:4006400009E00132134B134003D5013B63F0010301335BB229461A460F4C34F83340022C02D04D1C0129ECDD022C0AD10A4901EBC2014988C1F51C610431016004490B716E
:4006800003E0002303604FF0FF32104630BC7047CC80FF1F01000080809EFF1F294B9B68013B692B4AD8DFE803F03F414345474949494949494949494949494949494949F6
:4006C00049494949494949494949494949494949494949494949494949494949494949494949494949494949494949494949494949494949494949494949494949494949BA
:400700004949494949494949494949494949354B37393B3D0C4870470C4870470C4870470C4870470C4870470C4870470C4870470C4870470C4870470C487047002070470E
:400740000B4870471483FF1FF04000005C41000090410000BC410000F0410000244200005042000080420000AC420000E04200002841000070B4EFF31086012383F31088ED
:400780001E4B1D6A002207E022F003031B4C23445B6A834203D02032AA42F5D32A46B2F5A06F22D2154B22F003041C446062141D24331C44002304E0C85CE054C85C20B106
:4007C0000133182BF8D900E00133C85C08B17F2BFAD90A4909698B4201D908490B61AA4207D12035054B1D6203E0044AD3680133D36086F3108870BC704700BF1483FF1FF7
:40080000F0B4EFF31086012383F31088164BD3F82455002308E023F00302134C2244D2F82825824203D00833AB42F4D32B46B3F5A07F11D29C080C4A02EB8407C7F82805C7
:40084000013402EB8402C2F82815AB4208D10835054BC3F8245503E0034A53690133536186F31088F0BC70471483FF1F70B4067843788578C4780179427933442B4423443D
:400880000B4413449BB2DB439BB2C279B2EB132F07D18279DBB29A4205D1012E05D9002004E0002002E0002000E0012070BC704710B50446274BD868B0F1FF3F0ED1FFF722
:4008C0006BFE244BD860B0F1FF3F07D1224AD2F868360133C2F86836002010BD1D4BD8681E4B03EBC0035B881B1B002B1EDA1B4B022223F8302003EBC0035988154A136885
:400900005B1A13601269934201D2124A1361FFF743FE104BD860B0F1FF3F07D10E4AD2F868360133C2F86836002010BD094AD1680A4B03EBC1035868011959605988091BF7
:400940005980A4B213681C1B146013699C4200D2146110BDCC80FF1F1483FF1F809EFF1F10B5EFF31084012383F310880C4BDB699BB11420FFF79CFF78B10A4A026004223B
:40098000828041F6A122C28000228260202282812822C28108210182428284F3108810BD1483FF1F0046535070B5EFF31086012383F310880F4BDB69A3B917E02020FFF743
:4009C00077FF054648B90BE0E1180A4A02EB8102526A45F82320013300E00023072BF3D9083400E00024B4F5A07FE7D386F3108870BD00BF1483FF1F70B5EFF310860123E7
:400A000083F310880F4BDB69ABB917E00820FFF74FFF054650B90CE0E1180A4A02EB8102D2F8282545F82320013300E00023012BF2D9023400E000244F2CE7D986F31088FB
:400A400070BD00BF1483FF1F2DE9F84F002400E001340B5D0BB1332CFADD261D00D50336B61018B94FF0900A002302E04FF0910A01239F001E440F2E0ADD0F3EB600244B8A
:400A80009B699E4201D9224B9E61C7F13C040F26EFF31088012383F310881D4BDB699BB30D468346B01C1A4AD2F86C360133C2F86C368000FFF7FCFE814628B33603B6B23E
:400AC0004AEA060AA0F800A0114BB3F86C364380FFF75CFDC9F80400BBF1000F01D0C9F808B009F10809002304E0DA19E95C09F8021001339C42F8DCC7F13C039C4203DA00
:400B00003C44002309F8043088F31088BDE8F88F1483FF1F08B5FFF797FF08BD08B5064BDB693BB1FFF7BAFD014618B1034B1868FFF7F0FF08BD00BF1483FF1F7C9EFF1FBC
:400B400008B5044B9B681BB9024B9860FFF7E6FF08BD00BF1483FF1F70B582B0002301936846FFF75FFD45B2002D1CDB00240F4B186840F6C41303FB054301AA0099091B57
:400B80001844FFF717FC48B9019B1C44009B9C42EDD12846FFF722FD204605E06A20FFF7CFFF002000E0002002B070BD1483FF1F30B40F4B1860EFF31085012383F310886D
:400BC00000230EE00B4901EBC30040F6C4124280074C246802FB03424260002221F833200133012BEEDD85F3108830BC704700BF1483FF1F809EFF1F1C4BDB69834234D0C0
:400C000070B50446FFF7FAFB0546EFF31086012383F31088154BDC6100B9022514B3144C2046FFF7C5FF2046FFF7C2FF0F4C0023C4F86C36FF220F4B1A75FFF791FEFFF723
:400C4000B3FEFFF7D9FED4F87016D4F874365A1CC4F874262A46012000F076F900F0F0F9FFF75CFF86F3108870BD70471483FF1FF48AFF1FCC80FF1F08B50378012B02D161
:400C80004078FFF7B9FF08BD08B5084B9B685BB9064B9860FFF742FF0549064B186800F07FF80020FFF7A8FF08BD00BF1483FF1F144300007C9EFF1F2DE9F84F0B9FB1F5AA
:400CC000805F04D30120FFF7DFFFBDE8F88F05468A4690461E461C1D00D50334A410B8F1000F00D001354FEA85092C440F2C0ADD0F3CA400294B9B699C4201D9274B9C612A
:400D0000C9F13C060F24EFF3108B012383F31088224BDB69002B3DD0A01C204AD2F86C360133C2F86C368000FFF7C2FD90B32403A4B24AEA040AA0F800A0184BB3F86C36AB
:400D400004464380FFF722FC21466060083100230DE0B8F1000F03D013B941F8238005E03A68101D3860126841F8232001339D42EFDC002305E003EB09020A98C05C8854F4
:400D800001339E42F7DCC9F13C039E4202DA4E4400238B558BF31088BDE8F88F1483FF1F0EB470B585B0099D0026334609E0252906D10134295D11B1252900D00136013396
:400DC00001331C46E95C09B1332BF0DD0AAA039250B106F1910103AA01920095024689B23046FFF769FF09E006F1900103AA01920095024689B23046FFF75EFF05B0BDE848
:400E0000704003B0704700BF0CB430B585B0089C002300E00133E25C0AB1332BFADD04AA09AD42F8045D019200940022FFF744FF05B0BDE8304002B0704700BF10B5044674
:400E40000146FFF797FC2346224603210120FFF7DBFF204610BD00BF30B583B004460D46FFF7CEFC00952346224607210220FFF7CBFF21462046FFF77DFC204603B030BDA3
:400E8000F8B5B0F5805F03D30120FFF7FDFEF8BD04460E46EFF31085012383F310880E4BDB69ABB10C4AD2F86C360133C2F86C360C20FFF7FDFC074650B144F480540480D9
:400EC000054BB3F86C364380FFF760FB7860BE6085F31088F8BD00BF1483FF1F2DE9F041B0F5805F04D30120FFF7CEFEBDE8F08104460F461646EFF31085012383F31088D3
:400F0000104BDB69CBB10F4AD2F86C360133C2F86C361020FFF7CCFC804670B144F400540480084BB3F86C364380FFF72FFBC8F80400C8F80870C8F80C6085F31088BDE8FC
:400F4000F08100BF1483FF1F2DE9F843B0F5805F04D30120FFF798FEBDE8F8830446884617461E46EFF31085012383F31088114BDB69DBB10F4AD2F86C360133C2F86C3610
:400F80001420FFF795FC814680B144F440540480084BB3F86C364380FFF7F8FAC9F80400C9F80880C9F80C70C9F8106085F31088BDE8F8831483FF1F0EB4F0B582B0BDF834
:400FC0001C70B7F5805F03D30120FFF75DFE2FE00446EFF31086012383F31088174BDB6923B30230154AD2F86C360133C2F86C368000FFF75DFC0546C0B123039BB21F4326
:4010000007800E4BB3F86C364380FFF7BFFA686008AB0193002307E0019A111D019111689A1C45F822100133A342F5DB86F3108802B0BDE8F04003B0704700BF1483FF1FA0
:4010400000B583B00A4B5B6813B90A4A084B5A60074B5A6800230193012300934FF47A7302210420FFF7A8FF03B05DF804FB00BF1483FF1FC068780408B5114A114B1A60A0
:4010800003F54E434C331A6842F080721A601B681BB90320FFF7F8FD08BD0B4B1B6813F0007F03D00420FFF7EFFD08BD0022074B1A60054A136843F00103136008BD00BFFF
:4010C00055CEACC5B01F00E0001000E0041000E038B504460D46032824D8DFE800F00209101E084601F0F4F8104B1D55002038BD084601F0F9F80D4B1D55002038BD0846BE
:4011000001F0FEF8094B1D55002038BD29462046FFF7DEFF0134E4B200E00024022CF5D9002038BD6FF0130038BD00BFB089FF1F38B50024254609E00021094B195520463A
:40114000FFF7C6FF00B105460134E4B2022CF3D901F00CFA01F0C2F901F078F9284638BDB089FF1F10B5032838D8DFE800F002101E321C4B1B5C012B01D1002300E0012318
:40118000184A1354184601F0A3F8002010BD154B1B5C012B01D1002300E00123114A1354184601F0A1F8002010BD0E4B1B5C012B01D1002300E001230A4A1354184601F0FD
:4011C0009FF8002010BD2046FFF7CCFF0134E4B200E00024022CF6D9002010BD6FF0130010BD00BFB089FF1F014678B10023A0F86830A0F86430A0F8663003E00022CA54F6
:4012000001339BB2632BF9D9002070476FF01300704700BF08B5FFF7E7FF08BD10B4B0F86840632C15D8B0F86620531C9BB2A0F8663009788154094AA2FB031252096421CD
:4012400001FB1233A0F866300134A0F86840002001E06FF0070010BC704700BF1F85EB51B0F86830C3B1B0F864305A1CA0F86420C35C0B70B0F86430094AA2FB0312520949
:40128000642101FB1233A0F86430B0F86830013BA0F86830002070476FF00800704700BF1F85EB51B0F86800C0F1640080B27047B0F86800704700BF10B504466A30FFF7C9
:4012C000A9FF2046FFF7A6FF01F058F810BD00BF2DE9F04182B080460E46084602F0C5FE85B24046FFF7DEFF854209D36FF0030016E031193846FFF791FF0134A4B201E09D
:4013000047460024AC42F4D3002402A901F8014D4046FFF7A5FF9DF8070001F053F8204602B0BDE8F08100BF30B583B00546FFF7BFFF60B1002402A901F8014D2846FFF7AA
:401340008FFF9DF8070001F03DF8204601E06FF0080003B030BD00BF10B582B0044601F01BF802A901F8010D04F16A00FFF756FF9DF80730242B03D10121052000F00EFC3F
:4013800002B010BDFEE700BFF0B40022174611E050F82760F3B226F0FF0608E001EB420511F812406D78A5550132013BDBB2002BF4D10137212FEBD9F0BC7047064B1B7893
:4013C000DBB203F00701054A11701B09013213704422034B1A707047CF0100496E5800407658004038B50822264B1A801823264A13704D2102321180023213700622234BC9
:401400001A705222A3F580731A70214B1B78DBB2204A13704FF4E3621F4B1A8042F25122023B1A80002419250CE01C4B1B7803F0010343EA440404F003044FF4F07002F0D2
:401440004BFC013D0DB1032CEFD115B90320FFF799FF134A4FF48073138007231370002310490B7048200231087013700532137002220D4B1A700D4A137843F003031370FD
:4014800038BD00BF8040004082400040004300400F010049A14600402242004025420040044000400640004001400040A243004008B50A46002102F0D0FD08BD08B502F017
:4014C000C1FD08BD38B572B66122354B1A70FFF789FF00240CE0334D630019194A0011462A44084691882858FFF7E2FF0134E4B2062CF0D900240BE02A49A30018194200F9
:4015000088188022016BC06AFFF7D8FF0134E4B2002CF1D024494FF09040FFF735FF234A137843F0020313701032137843F0020313701F4C237843F040032370A2F586320F
:40154000513A137843F010031370082219491A48FFF7B4FF0A2219491948FFF7AFFF0A2218491948FFF7AAFF082218491848FFF7A5FF082217491848FFF7A0FF0822174947
:401580001748FFF79BFF174A137843F008031370FFF714FF0E2221461348FFF78FFF38BD00480040384300008800004803500140A0430040B806004802510040C0060048EA
:4015C000C0510040CC060048F0510040D806004812510040E006004822510040E80600483251004022430040B043004008B502F0FDFC03680C2B00D1FEE7FEE708B5104E84
:40160000104D16E029686B68AC68002204E051F8040B43F8040B0432A242F8D1E868002203E0002143F8041B04328242F9D11035013E002EE6D102F0DFFCFEF775FDFEE73E
:4016400001000000EC47000008B5104A104B1A60104A136843F40073136000230AE0032B03D80D4A52F8231000E00C490C4A42F8231001332F2BF2D90A4B1A780A4B1A7057
:40168000074A0A4B1A60FFF71DFF08BD0004FA050CED00E014ED00E000000000ED1500000080FF1FBC760040C080FF1F08ED00E038B5EFF3108572B605284ED82D4B53F88F
:4016C0002030002B4BD02B4A013B42F820302A4B53F82030032B07D10222274B43F820200022264B43F8202000F066FC244B1B68002B36D1234B1C6800F03CFCB0F1FF3F75
:4017000031D0214B53F82020204B1B689A422CD9B4F1FF3F03D00221174A42F824101C4A52F820201343194A13600022124B43F8202000F0DBFB174B53F820304BB1002441
:40174000144B43F8204040F0004002F04FFA20460CE002F04BFA002008E0032006E0042004E0002002E0002000E0002085F3108838BD00BF5C81FF1F1082FF1FE889FF1F02
:401780009C9EFF1FF481FF1F54450000088AFF1F34450000B889FF1F18B108B5C368984708BD704708B508B1406800E00020052816D80C4B53F8203093B10A4A013B42F8D8
:4017C0002030094B53F82030032B07D10222064B43F820200022054B43F8202000F0ECFB08BD00BF5C81FF1F1082FF1FE889FF1F18B1034640689B6801E0002318460528E6
:401800001DD80F4A52F82020CAB10E4A52F82010032914D010B50C4C54F820201A4344F820200A4A52F82020134207D0012905D10222044B43F8202000F0BEFB10BD7047CC
:40184000044500001082FF1FE889FF1FD089FF1F80B108B50378012B06D013B1032B06D008BDFFF79FFF08BDFFF7C2FF08BDFFF793FF08BD704700BF30B400EB4002930035
:40188000214AD258214B03EBC2035C68B4F1FF3F04D11E4B03EBC20250602DE01C4B03EB04139B6899420AD2184D05EBC2025060174A02EB04125B1A93601DE01C46144BA7
:4018C00003EB04139A68891ADB68B3F1FF3F05D00F4A02EB031292689142EFD2B3F1FF3F05D00B4A02EB031295686D1A9560084A02EB0414E0601C46054B03EB00108160AC
:40190000C46030BC704700BFB8440000F080FF1FD49EFF1F38B5414A02EBC0035C6852F83030013342F8303000EB40018A003C498A58934203D90022384B43F83020B4F100
:40194000FF3F6AD0374B03EB04139B68002B5FD1214600E01946334B03EB0113DB68B3F1FF3F05D02F4A02EB03129268002AF1D02C4A02EB01114FF0FF32CA60274A02EB1D
:40198000C0004360B3F1FF3F07D0264A02EB03139A68013A9A6000E02C4604EB44029300214A13441B7A03BB04EB440293001E4A134459681D4B53F8215005EB85029300BC
:4019C0001B4AD35C53B905EB85029300184A13445A6801320A31AA20FFF780FA05EB8505AB0013481844FFF733FF0E4B03EB0413DD68596821B101392046FFF73DFF03E02B
:401A000024010022074B1A51B5F1FF3FC4D138BD044A02EB0414013BA36038BDF080FF1FF4440000D49EFF1FB8440000E84400007C44000070B5EFF3108572B600283CD176
:401A4000FFF768FF224B1B68002B38D1214B1C6800F090FAB0F1FF3F33D01F4B53F820201E4B1B689A422ED9B4F1FF3F03D002261B4941F824601B4951F820100B4317494B
:401A80000B600021164B43F82010411C3720FFF725FA00F02BFA144B53F820304BB10024114B43F8204040F0004002F09FF820460AE002F09BF8002006E0032004E00020E4
:401AC00002E0002000E0002085F3108870BD00BF9C9EFF1FF481FF1F54450000088AFF1F1082FF1F34450000B889FF1F70B50546EFF3108672B6114B1C680246611CCB208C
:401B0000FFF7ECF90E4B1B687BB9B4F1FF3F0ED00C4B53F8243063B10B4A52F8243023EA050542F82450002004E0022002E0022000E0012086F3108870BD00BFF481FF1F7C
:401B40009C9EFF1F04450000E889FF1F10B505280FD80F4B53F820306BB10E4B53F82030032B0AD059B10C4B53F820300B60002406E0032404E0012402E0072400E00E248F
:401B80000A68411CCA20FFF7A9F9204610BD00BF044500001082FF1FE889FF1F70B504460D46EFF3108672B63D4B1B682BB90A46411CC920FFF792F904E00A46411CD02071
:401BC000FFF75EF9052C58D8364B53F82430002B55D0354B53F82430032B52D0334951F824202A4341F82420314A52F82420154249D0012B49D102222B4B43F82420204627
:401C000000F0DAF9264B1B68002B40D1294B1C6800F0B0F9B0F1FF3F3BD0274B53F82020264B1B689A4236D9B4F1FF3F03D002251D4941F82450224951F820100B431F49D0
:401C40000B600021184B43F82010411C3720FFF745F900F04BF91B4B53F820304BB10024184B43F8204040F0004001F0BFFF204612E001F0BBFF00200EE003200CE001206F
:401C80000AE0072008E0002006E0002004E0002002E0002000E0002086F3108870BD00BF9C9EFF1F044500001082FF1FE889FF1FD089FF1FF481FF1F54450000088AFF1FCF
:401CC00034450000B889FF1FF8B50546EFF3108672B6414B1C680246611CCD20FFF7FEF83E4B1B68002B6AD1B4F1FF3F69D03C4B53F82430B3F1FF3F65D13A4B53F82430D6
:401D0000002B62D0384B53F824301D425FD1374B43F8245030490B680120354A42F82300344A52F82370344D2A6822EA07022A60324A42F82300324A52F823300B6000F021
:401D400019F9B0F1FF3F05D02E4B53F820202B689A4214D8204B1D68B5F1FF3F0AD00022234B43F82520274B53F82520691C3720FFF7B4F845F0004001F038FF1AE0002148
:401D80001B4A42F820101B4A52F8202013431A4A136000F0ABF8194B53F8203043B10022164B43F8202040F0004001F01FFF01E001F01CFF00200D4B43F8240008E0022067
:401DC00006E0022004E0062002E0012000E0002086F31088F8BD00BFF481FF1F9C9EFF1FFC80FF1F04450000E889FF1FD089FF1F1082FF1F34450000088AFF1FB889FF1F3D
:401E0000F881FF1F5445000020B1034A12680260002070470E207047F481FF1F38B500F065F804460E4B53F82030B3B100220C4B43F820200B4D296801313020FFF720F8E0
:401E40002968094B53F8212001313720FFF746F844F00044054B1C6038BD044B186038BDB889FF1FF481FF1F54450000A09EFF1F10B500F07FF8124B1B68B0F1FF3F1AD083
:401E8000104A52F82010104A1268914213D9B3F1FF3F03D002240D4941F8234000210B4B43F820100A4B53F820301A43064B1A60FFF7B4FF10BD43F00043064A136010BD78
:401EC000F481FF1F54450000088AFF1F1082FF1F34450000A09EFF1F034B1B6813B10022014B1A60704700BF909EFF1FF0B4184B19880B0A174AD356B3F1FF3F01D153569E
:401F000001E008335BB2144D55F82320134850F82200134E56F8224045F82340114D2F6846F822702A60B4F1FF3F09D10E4A42F82340012202FA03F321EA0301044B198004
:401F40000A4B19680A4A42F820101860F0BC7047048AFF1F70430000B481FF1FA49EFF1F2C81FF1F008AFF1F7481FF1FF481FF1FF881FF1F0C4B1A88130A0C49CB56B3F100
:401F8000FF3F01D18B5601E008335BB2B3F1FF3F06D0074A52F82320064B53F8220070474FF0FF30704700BF048AFF1F70430000B481FF1FA49EFF1F30B4144B53F8202038
:401FC000134C2368134951F823502560124C44F823004FF0FF3441F82340104951F82210A1420AD10E4951F820400E480188214301800D4941F8223002E0064840F821309F
:40200000064941F8223030BC704700BF4481FF1F008AFF1F2C81FF1FA49EFF1F7481FF1F54450000048AFF1FB481FF1F10B150F8210070474FF0FF30704700BF0122014BCF
:402040001A60FEE7989EFF1FF8B500241AE0651C294F57F824102846FEF78CFB274B53F8246031462846FEF7CBFB2B4657F8242003210120FEF7C8FE324629461020FEF78B
:402080002DFF2C46052CE2DD002416E01C4B53F824500A351B4E56F824102846FEF76AFB2B4656F8242003210120FEF7ADFE552229461420FEF712FF0134022CE6D9002412
:4020C00016E0114B53F824501435104E56F824102846FEF74FFB2B4656F8242003210120FEF792FE552229461320FEF7F7FE0134002CE6DDF8BD00BF3082FF1F5445000028
:40210000DC440000E480FF1F504500002C82FF1F70B50546124B53F8306000241CE0104B03EBC50321465868FFF780FF0D4A52F82030013B42F820300B4B53F82030032B51
:4021400007D10222084B43F820200022074B43F82020FFF731FF0134B442E0D370BD00BF704400005C81FF1F1082FF1FE889FF1F18B908B5FFF7CCFF08BD70471A4B1B4A33
:40218000DA621B4A9A631B4ADA63EFF3108272B6194B1B6823BB10B5044600F05FF8174B1C600122144B1A60FFF74EFF2046FFF7DFFFFFF7DFFEB0F1FF3F0ED0104B53F89B
:4021C0002030104A11680B43136000220E4B43F82020FFF78BFE01F009FD62B6FFF72EFF82F31088072070470080FF1FAD3B0000713B000091000000989EFF1F089FFF1F8D
:4022000034450000088AFF1F1082FF1F08B5EFF3108272B60D4B19680D4B1B6863B90D4B53F82130B3F1FF3F08D14FF0FF300A4B43F82100002002E0022000E0062010B9DB
:40224000084601F02CFD82F3108808BDF481FF1F9C9EFF1FFC80FF1F1481FF1F38B5164B1D68EFF3108472B601F070FC134A136843F07F431360124B6B65124B1A6822F4BC
:4022800060421A601A6842F400521A600E4A116841F0200111600D492965196821F0E0011960196841F020011960136843F01003136084F3108838BD08ED00E020ED00E0D4
:4022C0002102000004E400E000E100E0C9020000044A137803F0BF03800100F0400018431070704700510040044A137803F0FE0300F0010018431070704700BF2051004045
:40230000044A137803F07F03C001C0B218431070704700BF005100407222094B1A70202203F580731A700622A3F5B0731A70472210331A70022203F253131A70704700BFEF
:402340008664004010B501F0CFFC04460A4A137843F02003137002F58072137843F0100313700332137843F01003137000F00CF9204601F0BDFC10BD9664004008B5054BD1
:402380001B7823B9FFF7C8FF0122024B1A70FFF7D9FF08BD108AFF1F084B1B78DBB213F0200F06D0064A1078C0B213F01E0F02D17047002070470020704700BF66650040B5
:4023C00046650040024B1B780BB1024B18707047108AFF1F44650040024A137843F080031370704778650040014B1880704700BF106A0040014B1880704700BF906A00409D
:40240000014B1880704700BF506A004008B50E4A137803F0C00343F0090313702032137843F0010313700132137843F0010313704FF6FF70FFF7D8FF4FF6FF70FFF7DAFF1D
:402440000020FFF7DDFF08BD7865004008B5054B1B7823B9FFF7DAFF0122024B1A70FFF7BBFF08BD128AFF1F024A137843F08003137070477D640040014B1880704700BFD2
:4024800018680040014B1880704700BF98680040014B1880704700BF5868004008B50E4A137803F0C00343F0090313701F32137843F0010313700132137843F00103137042
:4024C0004FF6FF70FFF7D8FF4FF6FF70FFF7DAFF0020FFF7DDFF08BD7D64004008B5054B1B7823B9FFF7DAFF0122024B1A70FFF7BBFF08BD138AFF1F024A137843F08003FE
:40250000137070477A640040014B1880704700BF14680040014B1880704700BF94680040014B1880704700BF5468004008B50E4A137803F0C00343F009031370203213784C
:4025400043F0010313700132137843F0010313704FF6FF70FFF7D8FF4FF6FF70FFF7DAFF0020FFF7DDFF08BD7A64004008B5054B1B7823B9FFF7DAFF0122024B1A70FFF715
:40258000BBFF08BD148AFF1F054A137843F0020313701032137843F002031370704700BFA243004001BE704708B5034B1B7A00FB03F001F091FB08BD5482FF1F70B504467F
:4025C0000E46074B1D681F2802D90020FFF7EAFF04F01F04103455F8240045F8246070BD08ED00E038B504460D46072902D90020FFF7D8FF1F2C02D90020FFF7D3FF04F07C
:402600001F0000F1604000F564406D01EDB2057038BD00BF134B1B78DBB20360124A127843EA02230360114A127843EA024303600F4A127843EA026303600E4B1B78DBB294
:4026400043600D4A127843EA022343600B4A127843EA024343600A4A127843EA02634360704700BF0301004904010049EC4600400201004901010049000100490501004927
:4026800006010049F8B501F02FFB0746404A137843F0010313701032137843F00103137001263C4B1E700225943B1D7002F5E2521B32137803F07F0313700020FFF774FF1C
:4026C000354C237803F0F9032370344A137803F0DF0313702378334323703046FFF764FF2820FFF761FF2E4B1A7802F07F021A701A7802F0BF021A7023782B4323702846E9
:40270000FFF752FF237843F0040323700024254B1C7001331C70384601F0EAFA07211720FFF760FF20491720FFF748FF07211820FFF758FF1D491820FFF740FF0721152049
:40274000FFF750FF1A491520FFF738FF07212046FFF748FF17492046FFF730FF07213046FFF740FF14493046FFF728FF07212846FFF738FF11492846FFF720FF07210C20E2
:40278000FFF730FF0E490C20FFF718FFF8BD00BFA54300409D6000409443004012600040F851004084600040E5310000CD2F0000E13100004131000071310000A531000007
:4027C000ED31000008B5214B18700023204A1370204A1370204A1370204A1370204A1370204A1370204A1370204B4FF400021A604FF080721A604FF400121A6001221A602B
:4028000002221A6004221A6011B1012906D00BE0174A137803F0FE0313700AE0144A137843F00103137004E0114A137843F00103137003220F4B1A708022203B1A70012088
:4028400001F04AFA04220C4B1A7008BDC5B0FF1FC8B0FF1FE4B0FF1FE7B0FF1FDCB0FF1FE6B0FF1FE9B0FF1FC4B0FF1F00E100E009600040286000401260004038B5044605
:402880000D46064B1B7823B9FFF7FCFE0122034B1A7029462046FFF795FF38BD158AFF1F00230A4A13700A4A13700A4A13700A4A13700A4A13700A4A13700A4A13700322E0
:4028C000094B1A708022203B1A707047C8B0FF1FE4B0FF1FE7B0FF1FDCB0FF1FE6B0FF1FE9B0FF1FC4B0FF1F28600040014B1878704700BFE7B0FF1F064B1B7813F0FF0F54
:4029000005D0044B1878C0B200221A7070470020704700BFE4B0FF1F00EB40008300024A13445878704700BFECB0FF1F431EDBB2072B0BD8064B00011A18185C00F00F007B
:40294000537843EA0020023880B2704700207047FC5F0040431EDBB2072B3CD8F0B4074600EB4004A3001C4C2344DB889BB2C3F500739A4208D900EB400293002344DA88C3
:4029800092B2C2F5007292B200EB4004A300124C2344DB7843EA1223104D04012E192B55D3B2737039B909E0CE5C3D010C4C665501339BB200E000239A42F5D8420002447E
:4029C0009300054A134400225A705A79D2B20001044B1A54F0BC7047ECB0FF1FFC5F004078600040FE5F0040431EDBB2072B0BD8420002449300054A134400225A705A79AD
:402A0000D2B20001024B1A54704700BFECB0FF1FFE5F004070B5D9B1054614460E46C8B1082819D8FFF782FFA04203D22846FFF77DFF0446002305E02901094A525CF25476
:402A400001339BB2A342F7D32846FFF7CDFF04E0002402E0002400E00024204670BD00BF7860004010B4FF2400230EE0094AD25C02EB42029100084A11448A7AD2B282424C
:402A800001D11C4602230133DBB2012BEED9204610BC7047B4B0FF1FECB0FF1F10B5204C2079FFF7DFFF237813F0800F0ED06378DBB2212B2FD11B4B07221A80C0EBC000F3
:402AC000194A1044586000F0EFFA10BD144B5B78DBB2202B02D0222B10D01EE0114A07231380C0EBC00310490B4453600F4A135C43F00103135400F0FFFA10BD084B9B7857
:402B00000B4A22F81030094A135C43F00203135400F088F910BD002010BD002010BD00BF00600040D0B0FF1F6482FF1FACB0FF1FC0B0FF1F10B500241F4B1C701F4B1C708F
:402B40005C700AE01E4B185DC0B2431EDBB2072B01D8FFF749FF0134E4B2012CF2D9194B1B7813F0FF0F1AD0154B1B7813F0FF0F17D0154B1B7813F0FF0F14D0114B1B78A1
:402B8000DBB2082B11D80E4B1B78DBB2082B0ED80D4B1B78DBB2082B0BD8002010BD012010BD012010BD012010BD012010BD012010BD012010BD00BF168AFF1FACB0FF1FD4
:402BC000B8B0FF1FB0B0FF1FB4B0FF1F70B506460D460F4B1B780F4AD45CE4B204EB440293000D4A13441B899BB28B4209D204EB44029300084A13441D89ADB20020FFF7E4
:402C0000D1FC2A4631462046FFF7A4FE70BD00BF168AFF1FB0B0FF1FECB0FF1F08B5034B1B78034AD05CFFF777FE08BD168AFF1FB8B0FF1F08B5034B1B78034AD05CFFF768
:402C40006BFE08BD168AFF1FB0B0FF1F08B5084B1B78084AD35CDBB203EB43018A0006490A44128992B201461846FFF7D3FE08BD168AFF1FB8B0FF1FECB0FF1FC37803F0A4
:402C8000030390F9020000280FDA032B06D002F001030B48C15442F001020EE0C2F380030848C15442F0040207E0032B05D0C2F340030548C15442F002021046704700BFD2
:402CC000B0B0FF1FB4B0FF1FB8B0FF1F1D4B19781D4A13889BB20B449BB2138000220FE01A494B681B78DBB2194883544B6801334B600132D2B20B889BB2013B9BB20B801B
:402D0000124B1B889BB20BB1072AE9D90D4B1B78DBB2082B00D05AB10E490B7883F080030B700F210C4B197002210C4B197004E0022309490B7009490B70094B1A70014BE6
:402D40001A707047C4B0FF1FC6B0FF1FD0B0FF1F006000405AB1FF1FE5B0FF1FC8B0FF1FE8B0FF1F0222074B1A708022064B1A700F22064B1A700023054A1370054A137036
:402D800001207047C8B0FF1F5AB1FF1FE5B0FF1FC4B0FF1FE8B0FF1F08B5FFF797FF08BD10B4194B197801F00F010239C9B2174A13889BB20B449BB21380002011E0144A1C
:402DC0005468144B1B5CDBB223705368013353600130C0B20139C9B213889BB2013B9BB213800B4B1B889BB20BB10029E7D10A4B19700A4A137883F0800313700B22084B8A
:402E00001A7010BC704700BF29600040C6B0FF1FD0B0FF1F00600040E8B0FF1F5AB1FF1FE5B0FF1F0623064A1370064A13708022054B1A700022054B1A700120704700BFBB
:402E4000C8B0FF1FE5B0FF1F5AB1FF1FE8B0FF1F064B9B6843B1054B9A6810709A6804490988518000229A60704700BFD0B0FF1FC6B0FF1F08B5134B1A78D2B21A701B784D
:402E8000DBB213F0800F02D00F4A137008BD0220FFF7DEFF0D4B1B7803F06003202B05D0402B06D043B900F093FC06E000F094FF03E000F037FE00E0002010B90322024BC2
:402EC0001A7008BD28600040E5B0FF1F0060004008B5094B1978094A13889BB20B449BB213800022064B1A700120FFF7B1FF0322044B1A7008BD00BFC4B0FF1FC6B0FF1FF0
:402F0000C8B0FF1FE5B0FF1F08B50B4B1B78DBB2042B06D0062B07D0022B0BD1FFF7D8FF08BDFFF73DFF08BD0320FFF791FF0322024B1A7008BD00BFC8B0FF1FE5B0FF1F04
:402F400008B50022044B1A700120FFF781FF0322024B1A7008BD00BFC8B0FF1FE5B0FF1F08B50B4B1B7813F0FF0F07D0084A137843F0800307490B70002313700022064B34
:402F80001A700120FFF764FF0322044B1A7008BDE6B0FF1F08600040C8B0FF1FE5B0FF1F08B5094B1B78DBB2042B06D0062B07D0022B07D1FFF7F0FE08BDFFF7C1FF08BD3E
:402FC000FFF7CEFF08BD00BFC8B0FF1F08B5284B1B78DBB213F0100F48D013F0800F0CD003F00F03012B16D1FFF744FF214B1B7813F0800F11D1012312E013F0400F03D0FD
:40300000FFF7CEFF01230BE013F0200F07D0FFF77BFF012304E0002302E0002300E0002323B3134B1B7813F0800F1FD1124B1B78124A12781343124A13701278D2B29342DB
:4030400014D10C4B1B78DBB2094A127812F0800F07D1084B1B78DBB2054A1370137803F00F03044A1278D2B29342EAD108BD00BF28600040E5B0FF1F5AB1FF1FE8B0FF1F0F
:40308000296000400022064B1A80064B9B682BB1044A916800230B7092685380704700BFC6B0FF1FD0B0FF1F08B50F4B1B889BB213B9FFF757FE15E002220C4B1A70002276
:4030C0000B4B1A70FFF7DEFF0A4AD179937943EA0123054A128892B2934201D2024A1380FFF7F4FD012008BDD0B0FF1FC8B0FF1F5AB1FF1F0060004008B504220B4B1A70E1
:4031000080220B4B1A70FFF7BDFF0A4AD179937943EA0123084A128892B2934201D2064A13800B22054B1A70012008BDC8B0FF1F5AB1FF1F00600040D0B0FF1FE5B0FF1F08
:403140000122094B1A700F3B9B7C084B1B7B03F00303934204D0054AD37B83F08003D3730122024B5A7370470B600040ECB0FF1F02220A4B1A700F3B93F82230084B1B7E1A
:4031800003F00303012B04D0054AD37E83F08003D3760122024B5A76704700BF0B600040ECB0FF1F04220C4B1A700F3B93F832300A4B93F8243003F00303012B06D0074A5E
:4031C00092F8273083F0800382F827300122034B83F82520704700BF0B600040ECB0FF1F704700BF08B5FFF75BFB08BD08B500F0A5FC08BD70B588B0054603AC174E0FCE2B
:403200000FC43368237035B322232B7003236B7001A8FFF7FFF9002402231AE008AA224412F81C2C08A901EB121111F8141CE954581C00212954981C02F00F0208AE324455
:4032400012F8142C2A54DA1CA9540134E4B20433DBB2212BE2D908B070BD00BF4846000010B401233EE019461A010C242148845403EB4300820020480244527912F0FF0F9E
:4032800013D003EB430082001B480244127912F0800F04D01801194A024494700AE01801164A02440820907004E01801134A0244802090704800084482000F480244D488F9
:4032C000E4B208010B4901448C71D088C0F30720C871D088C0B20871D288C2F307224A710133DBB2082BBED9FF22054B1A7010BC704700BF70600040ECB0FF1FFC5F0040CB
:403300000A600040074B1A78074B03EBC2035B681A7C824204D9C000103018444068704700207047C5B0FF1F5C460000F8B5404B1B7813F0FF0F79D03D4B18780138C0B251
:40334000FFF7E0FF047AC2683A4B1878C0B200236AE01178884264D13749095CC9B25578A9425ED1917801F07F01D67806F00306DFF8C8E04D000D44AF000EEB07054FF036
:40338000000C85F803C092F802C085F804C092F803C00EF807C097882F8192F90250002D0DDA012E01D1072700E00D274E000E44B500224E35446F7101266E700CE0012ED9
:4033C00001D1052700E009274E000E44B5001B4E35446F7100266E70DFF868E00F010EEB07060125B57001FA05F529448D00134929440D89C5F307250EF807500D89EDB260
:403400007570CE88F6B20E4D3D44AE71CE88C6F30726EE71CE88F6B22E71C988C1F30721697108320133DBB2A34292D3F8BD00BFE7B0FF1FDCB0FF1F58B1FF1FECB0FF1F76
:4034400070600040FC5F0040034B1A78034B03EBC2035868704700BFC5B0FF1F5C46000008B5084B18780138C0B2FFF74BFF30B142681279023200EBC203586808BD00202B
:4034800008BD00BFE7B0FF1F2DE9F047002310E0724D5900CA189600AC190022AA55A270E2702281A272627034462C4462710133DBB2082BECD940B90AE000226849CA54C6
:4034C0006849CA540133DBB200E00023012BF4D9654B1B7813F0FF0F00F0BD80624B18780138C0B2FFF70EFF80464368DB7913F0400F05D05D4A137843F00103137004E018
:403500005A4A137803F0FE03137098F808704FF0000A01266FE0D8F80C50002467E0AB7803F07F039E425FD1314606EB460083004A4803441B899BB2A888834206D206EB26
:40354000460E4FEA8E03454A134418812B784448C35CDBB26878834246D195F802C0DFF8FCE04B000B4498000EEB000383F804C0EB780EF80030EB7803F0030395F9020023
:40358000002813DA012B02D14FF0070901E04FF00D09DFF8C8E04B0003EB010C4FEA8C00704480F805900121417012E0012B02D14FF0050901E04FF00909DFF8A0E04B0042
:4035C00003EB010C4FEA8C00704480F8059000214170AB790A2B01D0022B05D1524631462846FFF74BFB824608350134E4B2BC4295D30136F6B2082E8DD9D8F80C000022E3
:403600000CE0837803F07F0310F8084B03EB43039900124B19448C720132D2B2BA42F0D3FFF71EFF124B1860002301210FE00B4D4A00501884002C44E380228992B2134415
:403640009BB203F0010213449BB20131C9B20829EDD9FFF705FEBDE8F08700BFECB0FF1F58B1FF1FCCB0FF1FE7B0FF1FE9B0FF1FE0B0FF1F08B5154B1B7903F07F035A1EB8
:40368000D2B2072A20D8590019448A0010490A44917841F0010191700021D170517841F002015170127912F0800F05D01B01094A1A448D23937004E01B01064A1A4489234E
:4036C0009370FFF7AFFB08BD002008BD00600040ECB0FF1FFC5F0040274B1B7903F07F035A1ED2B2072A44D810B5590019448A0022490A44917801F0FE0191700021D170AA
:403700001F4C1801215C01F07F012154517801F0FD015170127912F0800F13D003EB43018A0016490A445278D2B2012A04D1224602440C23937019E01B01114A1A440D2395
:40374000937013E003EB43018A000C490A445278D2B2012A05D11B01094A1A440823937004E01B01064A1A4409239370FFF75AFB10BD0020704700BF00600040ECB0FF1FC5
:40378000FC5F004010B50E4B1C79E4B20D4B18780138C0B2FFF7B6FD43681B799C4201D9022C0AD8084A135DDBB208490B55044B9B78DBB21355012010BD002010BD00BFF1
:4037C00000600040E7B0FF1F58B1FF1FCCB0FF1F10B59C4B1B78DBB200219B4A118013F0800F00F0AD80974A5278D2B20A2A00F27481DFE812F06900720172017201720159
:4038000072010B007201920072019A008D4BDB78DBB2012B09D1FFF717FE42688A4B5A6012221A80FFF740FC10BD864BDB78DBB2022B13D1834B9878FFF764FD002800F01A
:403840004E814268804B5A605A68D1785A68927842EA01221A80FFF727FC10BD794BDB78DBB2032B05D02CE00A7811440133DBB201E000237549734A9278D2B2934203D2A2
:403880000A7812F0FF0FEFD16E4B9B7813F0FF0F0BD06C4B9B78DBB26D4A127C934204D16C4C2046FFF7A6FC21460B7813F0FF0F00F017810B78644A13805160FFF7F4FB25
:4038C00010BD00F089FA10BD13F0030317D0022B40F009815C490B805A4B1B7903F07F0303EB43039A005C4B1A449278D2B25B4B1A7000225A704B60FFF7D6FB10BD5249AF
:4039000002230B80564B1A78D2B2544B1A7000225A704B60FFF7C8FB10BD4B4B01221A80504A5A60FFF7C0FB10BD474A01231380444B1B794C490B445360FFF7B5FB10BD40
:40394000404A5278013A0A2A00F2CF80DFE812F04C00CD009800CD000B00CD00CD00CD001300CD003000374B9B78DBB23F4A1370FFF758FA10BD334B9B7803F0FF041BB1E4
:40398000601EC0B2FFF7BEFC04B110B9002C40F0AE80344B1B78DBB29C4206D0314B1C700120334B1870FFF76FFDFFF73BFA10BDFFF7E8FE002800F09C80224A1379DBB2EE
:4039C0001279D2B22B490A702B4AD25CD2B22649CB5CDBB29A4204D00122254B1A70FFF7A5FCFFF71FFA10BD03F00303012B17D04BB1022B7FD1134B9B7813F0FF0F7CD1EC
:403A0000FFF76AFE10BD0F4B9B78DBB2012B76D1134A137803F0FD031370FFF703FA10BD084B1B79DBB2012B6BD8064B98781B79DBB21249CA5C22EA0002CA54FFF7F2F9DD
:403A400010BD00BF00600040D0B0FF1FC4460000B447000060B1FF1FECB0FF1F188AFF1FE9B0FF1FE7B0FF1F58B1FF1FE6B0FF1FE4B0FF1FDCB0FF1FCCB0FF1F5CB1FF1F66
:403A800003F00303012B17D04BB1022B3BD1224B9B7813F0FF0F38D1FFF7ECFD10BD1E4B9B78DBB2012B32D11C4A137843F002031370FFF7B7F910BD174B1B79DBB2012B79
:403AC00027D8154B98781B79DBB21549CA5C22EA0002CA54FFF7A6F910BD002010BD002010BD002010BD002010BD002010BD002010BD002010BD002010BD002010BD0020AF
:403B000010BD002010BD002010BD002010BD002010BD002010BD00BF00600040E9B0FF1F5CB1FF1F044B1B7813F0800F01D0024B5B780020704700BF00600040024B18785E
:403B4000C0F38010704700BF8F45004018484FF47F0102680A43026016486FF07F4102680A400260704714484FF080510160704772B611484FF000610160FEF779F90F482E
:403B8000006800F015F958B10C4800684FF080730B4A0C490FB40FB46FF00600004700BF6FF0060062B6004762B600DF08B0704720ED00E01CED00E004ED00E0A09EFF1FE0
:403BC000ED3B0000A93B0000EFF30880054908600548006880F3088870470248006880F3088870477E82FF1F4882FF1F411C8900154A11440968154A136899421AD0F0B46A
:403C000044464D4656465F46F0B400B5104C9B002344EFF308851D60116089002144096881F3088802BC8E46F0BCA046A946B246BB46F0BC002806DB00B500F0ADF802BCE6
:403C40008E46FFF7D3BF70479C4500000C8AFF1F4C82FF1FF0B444464D4656465F46F0B400B5EFF3038308B48000174901440968164A0244EFF30883136088471448804723
:403C800004BC4FF08070024382F3038801BC8646F0BCA046A946B246BB46F0BC704780000A4901440A6882F3088804BC4FF08070024382F3038808BC9E46F0BCA046A9467E
:403CC000B246BB46F0BC70476C450000BC9EFF1FF93C0000000000000230800803D000BF01380046FCD17047EFF3108072B6704780F31088704700BF10B572B6034B1C682A
:403D0000204600F01DF82046FFF7C9FFF481FF1F10B5094C216801313020FDF7B1F82168064B53F8212001313720FDF7D7F82068FFF790FF10BD00BFF481FF1F5445000028
:403D400010B4104B53F820304FF0FF310BE00E4A52F823200B4941F8202000240B4941F8234019461346B3F1FF3FF0D1B1F1FF3F04D0074B53F82120064B1A60084610BC97
:403D8000704700BFFC80FF1FF880FF1FB489FF1F049FFF1F088AFF1F08B562B6FFF7B8FF72B600F083F8014B186808BDA09EFF1F00280BDA20F000400130054B53F8200046
:403DC000044B1B68181A18BF01207047012070479C4500000C8AFF1F08B5144B1B7803F00303012B02D0022B04D00FE00F4B1B79DBB20CE00D4B1B7903F07F0303EB430311
:403E00009A000B4B1A44937ADBB200E00023022B07D8084A1268D35C022B04D1FEF73EFE08BD002008BD002008BD00BF00600040ECB0FF1FE0B0FF1F054B53F82020054BDC
:403E400053F820309A4201D101207047002070475C81FF1F1C45000038B5FEF747F804460E4B53F82030B3B100220C4B43F820200B4D296801313020FDF702F82968094BF9
:403E800053F8212001313720FDF728F844F00044054B1C6038BD044B186038BDB889FF1FF481FF1F54450000A09EFF1F38B5444B1C680022434B1A60434A52F82430013374
:403EC00042F82430414B53F824502046FFF7B4FF012801D0A54204D103223D4B43F8242003E002223A4B43F824203A4B53F82410394A136823EA01031360384B53F8244035
:403F00002F4B1C60B5F1FF3F0FD0314B53F82530032B07D102222E4B43F825200022304B43F825202846FEF747F8FEF723F8B0F1FF3F19D1B4F1FF3F11D00022244B43F861
:403F400024201F4D296801313020FCF799FF2968244B53F8212001313720FCF7BFFF44F00044214B1C6038BD1E4B53F820201A4B1B689A4216D80022154B43F82420104DD4
:403F8000296801313020FCF77BFF2968154B53F8212001313720FCF7A1FF44F00044124B1C6038BD00210A4A42F82010094A52F820201343084A1360FFF74EFF38BD00BFD4
:403FC000F481FF1F909EFF1F5C81FF1F1481FF1F1082FF1F34450000088AFF1FF881FF1FE889FF1F54450000A09EFF1F014B1868704700BFE482FF1F0E4B70B51E460E4C3E
:404000000025E41AA410A54204D056F8253098470135F8E700F0D8FB084B094C1E46E41AA4100025A54204D056F8253098470135F8E770BDD4470000D4470000D4470000E1
:40404000DC47000010B5431E0A44914204D011F8014B03F8014FF8E710BD03460244934202D003F8011BFAE77047034613F8012B002AFBD1181A0138704700000000000039
:404080004953525F554152545F54580049276D206120706F6F72206C6F77207072696F72697479206379636C6963207461736B20686176696E6720612068656C6C206F66D8
:4040C0002061206A6F62210A0000000042616E67212121210A0000005761726E696E67732066726F6D205265636F72646572000045786365656465642053594D424F4C5FD4
:404100005441424C455F534C4F54532028736565207854726163654765744C6173744572726F72290000000045786365656465642053594D424F4C5F4D41585F4C454E4759
:4041400054482028736565207854726163654765744C6173744572726F7229004578636565646564204F424A4543545F444154415F534C4F54532028736565207854726111
:4041800063654765744C6173744572726F722900537472696E6720746F6F206C6F6E672028736565207854726163654765744C6173744572726F7229000000005452435F5C
:4041C00053545245414D5F504F52545F524541445F444154412072657475726E6564206572726F722028213D2030292E000000005452435F53545245414D5F504F52545F24
:4042000057524954455F444154412072657475726E6564206572726F722028213D2030292E000000496E76616C6964206576656E7420636F64652028736565207854726152
:4042400063654765744C6173744572726F722900457863656564656420495352206E657374696E672028736565207854726163654765744C6173744572726F72290000005F
:40428000445754206E6F7420737570706F727465642028736565207854726163654765744C6173744572726F722900004457545F435943434E54206E6F7420737570706FCB
:4042C000727465642028736565207854726163654765744C6173744572726F7229000000436F756C64206E6F742063726561746520547A4374726C202873656520785472BA
:404300006163654765744C6173744572726F7229000000005265636F726465722073746F7070656420696E2070727654726163654572726F7228290040510040300000005E
:404340000140001000140140000280160140800500400140000A004C014000020050014020000000001601403806004880000000FF000101020202020303030303030303F0
:4043800004040404040404040404040404040404050505050505050505050505050505050505050505050505050505050505050506060606060606060606060606060606BD
:4043C000060606060606060606060606060606060606060606060606060606060606060606060606060606060606060606060606070707070707070707070707070707072D
:4044000007070707070707070707070707070707070707070707070707070707070707070707070707070707070707070707070707070707070707070707070707070707BC
:40444000070707070707070707070707070707070707070707070707070707070707070707070707070707070707070707070707010000007844000000000000000000002F
:40448000020000000000000000000000FFFFFFFF00000000030000000000000000000000FFFFFFFF00000000040000000000000000000000FFFFFFFF0000000000000000FF
:4044C000000000000000000001000000000000000000000002000000000000000000000001000000020000000000000001000000020000001027000001000000000000007B
:4045000010000000000000000000000000000000000000000000000001000000010000000100000001000000010000000100000001000000800000000100000008000000DB
:4045400002000000100000008000000001000000000000000100000001000000080000000200000010000000800000006D0100000D020000CD01000045050000ED01000089
:40458000A1010000113D0000113D0000113D0000113D0000113D0000113D000000000000000000000000000000000000000000000000000001000000616C726D5F6379633A
:4045C0006C696300616C726D5F5461736B54727A4374726C00000000616C726D5F6379636C69633200000000656E644F664C696E650000007265735F756172740000000083
:4046000074736B5F696E69740000000074736B5F6261636B67726F756E64000074736B5F6379636C69630000547A4374726C000074736B5F6379636C6963320074736B5FAE
:404640006A736F6E000000003031323334353637383941424344454600000000010000006446000001000000B44700000000000000000000010000007C4600000100000073
:404680007047000003000000A84600000000000000000000000000000000000000000000A4460000020A000000008103080002000100820240000A000100030240000A00AF
:4046C00002030000040309042A0348006F006300680073006300680075006C00650020004400610072006D00730074006100640074001C034C006100620042006F0061006A
:4047000072006400540072006100630065003803430044004300200043006F006D006D0075006E00690063006100740069006F006E00200049006E007400650072006600B1
:40474000610063006500260343004400430020004400610074006100200049006E0074006500720066006100630065000000000009024300020101803209040000010202BC
:404780000103052400100104240202052406000105240100010705810308000A09040100020A0000040705820240000007050302400000001201000202000008B40432F258
:4047C0000100010280014300F8B500BFF8BC08BC9E4670474D00000049160000F8B500BFF8BC08BC9E4670472900000000480000C880FF1F20020000A02E00000000000080
:404800000000000088130000FF00FFFF01000000FFFFFFFF88130000FF000000B8450000C4450000D845000000000000FFFFFFFFFFFFFFFFFFFFFFFFFFFFFFFFFFFFFFFF3A
:40484000FFFFFFFFFFFFFFFFFFFFFFFFFFFFFFFFFFFFFFFFFFFFFFFFFFFFFFFFFFFFFFFFFFFFFFFF0100000002000000030000000400000005000000FFFFFFFF0000000051
:404880000000000003000000010000000400000007000000010000000100000001000000010000000100000001000000FFFFFFFFFFFFFFFFFFFFFFFFFFFFFFFFFFFFFFFFF7
:4048C000FFFFFFFFFFFFFFFFFFFFFFFFFFFFFFFFFFFFFFFFFFFFFFFFFFFFFFFFFFFFFFFFFFFFFFFFFFFFFFFFFFFFFFFFFFFFFFFFFFFFFFFFFFFFFFFFFFFFFFFFFFFFFFFFF8
:40490000FFFFFFFFFFFFFFFFFFFFFFFFFFFFFFFFFFFFFFFFFFFFFFFFFFFFFFFFFFFFFFFFFFFFFFFFFFFFFFFFFFFFFFFFFFFFFFFFFFFFFFFFFFFFFFFFFFFFFFFFFFFFFFFFB7
:40494000FFFFFFFFFFFFFFFF030000000300000003000000030000000300000003000000E8450000F4450000004600000C4600001C46000028460000304600003C46000067
:404980000CA1FF1F0000000084B0FF1F0000A08C401901004800000000A24A0400C2010000000800C201000000080000A120000000000200000000000000000000000000C3
:4049C00000000000000000000000000000000000000000000000000000000000C64700000000000000000000000000000000000000000000000000000000000000000000AA
:404A0000000000000000000000000000000000000000000000000000000000008482FF1F000000000000000000000000000000000000000000000000000000000000000052
:404A40000000000000000000000000000000000000000000000000000000000000000000000000000000000000000000000000000000000000000000000000000000000036
:404A800000000000000000000000000000000000000000000000000000000000000000000000000000000000000000000000000000000000000000000000000000000000F6
:404AC00000000000000000000000000000000000000000000000000000000000000000000000000000000000000000000000000000000000000000000000000000000000B6
:404B00000000000000000000000000000000000000000000000000000000000000000000000000000000000000000000000000000000000000000000000000000000000075
:020000040003F7
:0200000480007A
:40000000014500400752004001640040026500400101014003050140420601402F070140320A0140120B0140320C0140120D0140010F01405B140140441501400C16014011
:40004000441701403B180140261901400D1B0140084001400B4101400B42014007430140014401400745014005460140064701400848014005490140104C01400F4D0140B1
:400080000B500140025101407E0208C5095310201118608061807C4086728638890FE20881018804E02000420108044C050106A30803090C0D010EB3104F110112901408E3
:4000C000151E18FF19041C011F0220F32112220C230C24042501280C291E2D1C2E402F02308C327C33103501360F370E39203AAA3F144002454049FF4A074BFF4C404D2067
:400100004EF04F05500856025711580459045A045B045C115D115F01604061A862406320AF01B701D904DC10DF01058406480C080E4A1440158017281C401D041E481F48D0
:4001400021402410261027012A402C402E402F583591360C3C083D803E2245204C8057025C106D406F147440751076227728844889409901A004C0F0C2F0C4F0CAF8CCF05B
:40018000CEF0D020D620E420060222022E01320234014020410449FF4AFF4BFF4DA04F045018528058045A045B045F01604062C06440654066C068C06AC06CC06EC0C06063
:4001C000C105C510C602C806C9FFCAFFCBFFCDAFCE0FCF04D018DA04DF01E040E2C0E440E540E6C0E8C0EAC0ECC0EEC00004108218041B14400442804C804FA05680574035
:4002000070028304B610C004C409D005D230E4044060410249FF4AFF4BFF4DA04F0450185A045F01604062C06440654066C068C06AC06CC06EC086029201A602B202B40182
:40024000C020C106C501C702C811C9FFCAFFCBFFCDAFCE0FCF04D018D280D804DA04DB04DF01E040E2C0E440E540E6C0E8C0EAC0ECC0EEC000040902102018041A101B1028
:400280004004460448284F20500852047102C004C208C404D024D224E208040C05130611070C08200A03141C15031602170418091A101B0820102414251327042810290AE0
:4002C0002A0C2B142D202F05321F330F3420353039203B083E1040344102450B460E470C481549FF4AFF4BFF4EF04F44500C580459045A045C115D015F0166C06A406B0240
:4003000080018140820283108570861489708A0C8E049120931094189501960497069A189B0C9C029D109E019F60A208A308A403A501A70EA803A90CAB03AF03B370B41C9B
:40034000B50FB603BA20BB20D804D904DC11DF010010032004010510072108040B040C040E200F0610A0120813021628171618141C011D101E021F202104222823242514D4
:40038000261028042B222C842F22300832203580362939083E283F02410443234820500852408184871088408A408C0497209B149C409F20A080A303A408A514A601A720B2
:4003C000AD04AF48B404B502C0F6C2E6C47ECAFECCF6CEE2D007EA408B0197019901A501AF01B501BF10D608D904DB04DD90DF01044005250C200D040F01154017151C0132
:400400001D111F042004252027422B222D102F623018341035843601372038133C503D283E083F0247494C014DB04E084F01542058405F02624063026502670A8110830107
:400440008C08904091409380972099049B159D809E48A080A208A302A520A601B210C0F0C2E0C4F0CAFACCF6CEF4D0D0D230D688D8B8E601EA82EE082E013401402041065E
:4004800049FF4AFF4BFF4DA04F045018528058045A045B045F01604062C06440654066C068C06AC06CC06EC08D019A01A601B301B401BF04C020C106C501C702C811C9FFBE
:4004C000CAFFCBFFCDAFCE0FCF04D018D401D604D804D904DA04DB04DD10DF01E040E2C0E440E540E6C0E8C0EAC0ECC0EEC009201020178018081D2022043B804120452012
:4005000048204A084E08520859805A1960806A266B0271407220734877808080821083088A018E10C202C484CE08D024D224D60FD801E004E414EA02EE088A018B409601B8
:400540009780AF40B140B224B302B404B580E280E4C0EC4233813408358039408580CCF0CE10E21005800B400C08324095409C089F01A780C080C230CC1081808B409340E6
:400580009540968099809C089F01A008A780E0208808954096809C089F01A008A780871053015C0262049710D401D601D802830197129C02B604EC0808080B040F1097105C
:4005C0009C02C20E824095409680AF81B008E680EA40EE1003088708B540C040E4405311561059015F4260086710810183018B109C02AC08AF04D407D607D803E0041040A6
:40060000750188408D01AF02B008B210B350B402C408DE04E201E402E80DEC05000302140A020C010E011003110112141A021B011C0300EA010F000000080220000C041086
:40064000040200000000040C000400200400000C000302000000080C000C080001030000010C000001000001043002000803010C02200000000014113506040001C0E0007B
:400680000AFFFFFF62A0F0410C000000180004000404040411110001000000000000400200103010001010120000000000000000000000000000000038C0C0000000000029
:4006C0008000408080008000000000004000000000000000C000000000FFFF00FF0000000039390038000000042020000000000000000000000000000000000000000000CF
:4007000000000000000000000000000000000000000000000000000000000000000000000000000000000000000000000000000000000000000000000000000000000000B9
:400740000000000000000000000000000000000000000000000000000000000000000000000000000000000000000000000000000000000000000000000000000000000079
:400780000000000000000000000000000000000000000000000000000000000000000000000000000000000000000000000000000000000000000000000000000000000039
:4007C00000000000000000000000000000000000000000000000000000000000000000000000000000000000000000000000000000000000000000000000000000000000F9
:0200000490006A
:0400000000004007B5
:0200000490105A
:04000000BC90ACAF55
:0200000490303A
:02000000BFCE71
:0200000490402A
:4000000000000000000000000000000000000000000000000000000000000000000000000000000000000000000000000000000000000000000000000000000000000000C0
:400040000000000000000000000000000000000000000000000000000000000000000000000000000000000000000000000000000000000000000000000000000000000080
:400080000000000000000000000000000000000000000000000000000000000000000000000000000000000000000000000000000000000000000000000000000000000040
:4000C0000000000000000000000000000000000000000000000000000000000000000000000000000000000000000000000000000000000000000000000000000000000000
:0200000490501A
:0C00000000012E16106900012E33D037CD
:00000001FF