:400000000080002011000000F9110000F911000008B5044B1A6803F53F5302331A6001F00BF900BFFA46004010B5054C237833B9044B13B10448AFF300800123237010BD5E
:40004000B882FF1F0000000054270000084B10B51BB108490848AFF300800848036803B910BD074B002BFBD0BDE81040184700BF00000000BC82FF1F54270000C880FF1F2A
:4000800000000000436893420AD25A1C426001EB03104FF0FF33836043600023C3607047002070470170426083600023C360704770B506681DE0202C21D006D8092C0ED34E
:4000C0000A2C1CD90D2C0AD119E03A2C17D002D82C2C04D113E05D2C11D07D2C0FD0203CE4B25E2C03D906606FF0010070BD013505600568954202D24C5D002CDBD11BB93C
:40010000013D0560002070BD19460446049AFFF7B9FF18B926604FF0FF3070BD236832460821FFF7BFFF2368013B2360002070BDF8B50668741C04607AE0222D13D1002BAA
:4001400000F0818019460446069AFFF79BFF18B926604FF0FF30F8BD2368721C0421FFF7A1FF0020F8BD5C2D5FD10134A2425CD904600D5D223D532D53D8DFE805F056524F
:4001800052525252525252525252525652525252525252525252525252525252525252525252525252525252525252525252525252525252525252525652525252525652B3
:4001C00052525652525252525252565252525652562A013404604FF0000E15E0A5F13007FFB2092F0CD9A5F14107FFB2052F07D9613DEDB2052D03D906606FF00100F8BD74
:40020000013404600EF1010EBEF1030F05DC0468A24202D90D5D002DE0D10468013C046003E006606FF00100F8BD0468013404600468944203D20D5D002D7FF47EAF0660DE
:400240006FF00200F8BD0020F8BD00BF10B5002001F020FA01F024FD04460146064800F08FFC242C03D10121002001F001F9002001F0DCFB10BD00BF1084FF1F2DE9F047B4
:4002800082B00646884617461D46DDF828A0D0F80490D1E02C2C00F092800ED80D2C00F0C88004D8093C012C40F2C380ABE0202C00F0BF80222C66D0A5E05D2C2DD004D8A3
:4002C0003A2C78D05B2C05D09DE07B2C02D07D2C23D098E009F10109002D00F0AA80524629463046FFF7CEFE0146002800F0BF80B368B3F1FF3F04D005EB0313DA68013276
:40030000DA607B2C01D1012300E002230B7033684B607368013BB3608BE0002D00F089807D2C01D1012400E002247368013B14E005EB03125068B0F1FF3F0DD09068B0F1A2
:40034000FF3F09D11078844240F094804FF0FF30B0600131916002E0013B002BE8DAB3F1FF3F0DD189E005EB03125168B1F1FF3F05D09268B2F1FF3F01D1B36059E0013B56
:40038000002BF0DA55E0CDF800A02B463A4641463046FFF7CDFE002876DB09F10109B368B3F1FF3F45D0002D43D005EB0313DA680132DA603DE07368013BB36039E0002DEE
:4003C00037D0B368B3F1FF3F33D01B01EB5C022B2FD0012B2DD07268013A11E01301E918EB5C013BDBB2012B09D84B68B3F1FF3F05D08B68B3F1FF3F01D1B26019E0013AAF
:40040000002AEBDA15E0CDF800A02B463A4641463046FFF74DFE002836DB09F10109B368B3F1FF3F05D025B105EB0313DA680132DA603368013333603168B94204D218F8CE
:400440000140002C7FF426AFD5B17368013B0AE005EB03125168B1F1FF3F03D09268B2F1FF3F0FD0013B002BF2DA48460CE04FF0FF3009E06FF0010006E06FF0010003E088
:40048000484601E06FF0020002B0BDE8F08700BF0023036043604FF0FF338360704700BF08B562B6034801F0B1FB002001F054FAFBE700BF4D02000008B501F0B5FB01F091
:4004C000E1FB00F021FA502000F05EF9002000F00DFF012000F00AFF022000F007FF01F07DFA08BD10B5ADF5166D0024CDF85C494FF448712B4800F017FB20A800F052FBF5
:40050000012302222146284800F0B4FC012001F02FF80DF65C11002000F08AFFDDF85C0900F058FF00248DF85B49204601F0B2F8204600E00130C728FCDD0DF65B111948DC
:4005400000F00CFB9DF85B1920A800F041FB9DF85B39242BF1D120A800F044FB20A800F06DFB012001F096F820A901A800F0F8FC002409E004EB44035900062201AB194473
:40058000094800F081FC01341F9B9C42F2DB20A800F012FB012001F049FA002001F046FAB4E700BF1084FF1F1C84FF1F70B586B000230593022000F0DBFF05A9012000F0ED
:4005C00037FF059800F006FF012001F063F8134BDD8900241CE0114A5389023332F83320C2B103A90D4800F087FC80B99DF80C3013B9BDF80E600AE09DF811309DF8102094
:400600009DF80F109DF80E00009600F017FA0134AC42E0DB012001F009FACBE71C84FF1F00BFFDE738B5134B988908B319461C89631C9BB2104AA2FB03525209642505FB9F
:4006400012330B810138888101EB44018B7B13B1012B04D006E0002001F0B8FB02E0012001F0B4FB034B03EB4404E07B01F062FB38BD00BFD482FF1F1F85EB5130B5ABB0AA
:400680001B4B9B89632B17D92AAD032305F8A83D184B1868CDF80100174C0FCCCDF81100CDF81510CDF81920CDF81D30284600F025FA6FF0070019E00D4D6C89621C92B2AF
:4006C00005EB4404A073E1730C49A1FB02014909642000FB11226A8101339BB2AB81012B03D1FFF79FFF002000E000202BB030BDD482FF1FB02C0000B42C00001F85EB513F
:400700002DE9F04180460E4617461D462A210020FFF7B4FF00210120FFF7B0FF194C94F8D6104144C9B20120FFF7A8FF00210120FFF7A4FF94F8D6103944C9B20120FFF7AC
:400740009DFF2B210020FFF799FF00210120FFF795FF94F8D7103144C9B20120FFF78EFF00210120FFF78AFF94F8D7102944C9B20120FFF783FF2C210020FFF77FFFBDE8D5
:40078000F08100BFD482FF1F08B5642800D9642001F048FB08BD00BF10B5044636210020FFF76CFF04F003002A4B83F8D80003284ED8DFE800F00215283BC2210120FFF715
:4007C0005DFF244BA022A3F8DA208022DA8093F8DC2083F8D62093F8DD2083F8D72010BDA2210120FFF74AFF1A4BA022DA808022A3F8DA2093F8DC2083F8D72093F8DD20C0
:4008000083F8D62010BD08210120FFF737FF114BA022A3F8DA208022DA8093F8DC2083F8D62093F8DD2083F8D72010BD62210120FFF724FF074BA022DA808022A3F8DA2034
:4008400093F8DC2083F8D72093F8DD2083F8D62010BD00BFD482FF1F2DE9F0411F46BDF818501F4BB3F90630834236DD90461C4AB2F8DA20914230DA00EB0804013C9C42CA
:4008800002DB1B1A0FFA83F87B18013B9A4201DC571A3FB2C0B2C9B2CB19013B00EB0802013ADBB2D2B2FFF72BFF2E0AEDB2012001F08CFA0FE031460220FFF7DFFE294611
:4008C0000220FFF7DBFE013C24B200E04446002CF1DC013F3FB2002FF8DCBDE8F08100BFD482FF1F00B583B0064AB2F9DA30B2F90620009000210846FFF7AEFF03B05DF8AC
:4009000004FB00BFD482FF1FF8B5364B8022DA80A022A3F8DA20002483F8D840A3F8DE40A3F8E04001251D714FF6FF72A3F8E220A3F8E4405D711C6083F8DD4083F8DC409A
:4009400083F8D64083F8D7401C815C819C8101F02FFA284601F046FA642001F0DFFA204601F040FA642001F0D9FA284601F03AFA142001F0D3FA29462046FFF77FFE3220BE
:4009800001F0CCFA11212046FFF778FE782001F0C5FA0F22144D14E02C4614F8021B0020FFF76CFE6A78254606E06E1C29780120FFF764FE22463546531EDCB2002AF4D1EB
:4009C0003A46531EDFB2002AE6D10220FFF7E4FE0020FFF787FF01F075FA642001F022FAF8BD00BFD482FF1F59270000002821DB114BB3F9063098421CDA00291ADB0E4BFC
:400A0000B3F8DA30994215DA10B51446C0B2C9B24B1C421CDBB2D2B2FFF772FE012001F0D5F9210A0220FFF729FEE1B20220FFF725FE10BD704700BFD482FF1F2DE9F04FCB
:400A400083B005460E461746BDF830200092C1EB0308B8F1000FB8BFC8F10008C0EB0709B9F1000FB8BFC9F10009C84504DD3A461F4613460D460646BD4205DD32461E46D3
:400A800013462A463D461746C5EB070B1FFA8BFB0FFA8BF4C6EB030ABAF1000FB8BFCAF1000A04EBD47464109E4202DA012301931EE04FF0FF3301931AE0C84505DD009A4B
:400AC00029463046FFF792FF04E0009A31462846FFF78CFFCAEB0404A3B21CB2002C05DA019A164436B20BEB030424B201352DB2BD42E2DD03B0BDE8F08F00BF10B5044693
:400B0000013001F0DFF8064801F0DCF804F1110001F0D8F8034801F0D5F8002010BD00BFD82C0000C42C0000002343808380C38089B110B504460846218001F091FCA06057
:400B4000002303E0A2682021D154013322889342F8DB002010BD6FF00200704782684388D35C0B70438801339BB20188B3FBF1F201FB12334380C388013BC380002070470A
:400B800082688388D154838801339BB20188B3FBF1F201FB12338380C3880133C3800020704700BF10B50446FFF772FC0020A4F8D408A4F8D60810BD0023036043604FF01F
:400BC000FF328260A0F8D438A0F8D63818467047B0F8D438C21811730133A0F8D4380020704700BF00B583B00146B0F8D4288023009300F1D4030C31FFF740FB002003B0F1
:400C00005DF804FBB0F8D6384268934210D230B404460D460D3300EB031304330FCB85E80F00B4F8D6380133A4F8D638002002E04FF0FF30704730BC704700BF70B5054669
:400C4000224801F03FF8002638E006F10D0305EB03131B79082B11D8DFE803F005090D101210101016001A4801F02CF806E0194801F028F802E0184801F024F800240DE07B
:400C8000164801F01FF8F9E7154801F01BF8F5E723442B44187B01F009F8013405EB0613D3F8DC2006F10D0305EB03139B68D21A9442EDDB0B4801F005F801366B689E428C
:400CC000C3D3094800F0FEFF70BD00BFDC2C0000F42C00001C2D0000402D0000642D0000882D0000B02D0000B42D00002DE9F04105460F469046002408E005EBC406414648
:400D000055F8340001F08AFC18B10134BC42F4D300263046BDE8F0812DE9F04385B081460D4669462846FFF76DFF002840F0888007469DF80030012B03D169462846FFF7AA
:400D400061FF9DF80030042B7DD1019B2B441B7B632B33D169462846FFF754FF0746002874D19DF80030042B73D1019C029B1C1BE4B2A046204601F073FB064600230BE03A
:400D8000019A1A442A44127BF254621E934202D15A1C0021B15401334345F1D33448324650F8041BFFF7A2FF8388002289F80020A9F80230304601F05BFB55E0642B53D17D
:400DC00069462846FFF71EFF0746002844D14FF000082EE069462846FFF714FF00283ED19DF80030082B3DD1019C029B1C1BE4B2204601F035FB064600230CE0019A1A449F
:400E00002A44127BF254621E934202D15A1C0021B1540133DBB2A342F0D3304601F0F0FAC4B2304601F024FB09EB08039C7008F10108B8F1030FCDDD012389F8003013E0BD
:400E40004FF0FF3710E04FF0FF370DE04FF0FF370AE04FF0FF3707E04FF0FF3704E04FF0FF3701E04FF0FF37384605B0BDE8F083CC80FF1F0181026043600023C381438165
:400E800083811846704700BFF8B50389092B2BD815460E460746104601F0E2FA024630B3BB89023307EBC3035860002302E0F45CD4540133AB42FADBBB899A1C27F83250A9
:400EC00001339BB20B4AA2FB0312D20802EB820251005B1ABB81FB890133FB813968786800F0C6FA0020F8BD6FF00700F8BD6FF00300F8BDCDCCCCCC38B5C3893BB345898B
:400F0000AB1C00EBC3032BB3002306E0AC1C00EBC4046468E45CCC5401339342F6DB0446023500EBC505686801F0A2FA6289013292B20A4BA3FB0213DB0803EB8303590024
:400F4000521A6281E389013BE381002038BD6FF0080038BD6FF0030038BD00BFCDCCCCCC70B582B004460E46002383670EE0A36F03EB43025100651802AA52F8080D6050A0
:400F80009288AA800133A367132B07DC31466846FFF7C2FE0028EAD0002001E06FF0070002B070BDFEE700BFF0B40022174611E050F82760F3B226F0FF0608E001EB420529
:400FC00011F812406D78A5550132013BDBB2002BF4D10137192FEBD9F0BC7047064B1B78DBB203F00701054A11701B09013213704422034B1A707047CF0100496E580040FA
:401000007658004008B50A46002101F044FA08BD38B50024284B1C80582202331A70042202331A801823254A1370192502321580023213700222224B1A7008224FF0402360
:401040001A70032103F5007319701E4B1B78DBB21D490B701D4B1A8041F25122023B1A800CE01B4B1B7803F0010343EA440404F003044FF4F07001F033F8013D0DB1032CAF
:40108000EFD115B90320FFF78DFF124B4FF480721A8007221A7000220F490A704820023108701A700222033B1A700C4A137843F00703137038BD00BF804000408640004046
:4010C0000043004008010049A146004022420040254200400440004006400040A243004008B501F0CDF908BD38B572B6334A137843F00403137000240CE0314D6300191944
:401100004A0011462A44084691882858FFF77AFF0134E4B2092CF0D900240CE02848A20011194B000344B3F84420196CD86BFFF7D7FF0134E4B2012CF0D922494FF09040C5
:40114000FFF732FF204A137843F0020313701032137843F0020313701C4C237843F040032370A2F58632513A137843F0100313700A2217491748FFF7B3FF0822164917485B
:40118000FFF7AEFF082216491648FFF7A9FF164A137843F008031370144D61232B70FFF737FF81232B700122114B1A70FFF716FF0E2221460F48FFF793FF38BDE846004083
:4011C0000C2E00006800004803500140A0430040C4060048C0510040D006004812510040D806004832510040224300400048004004000840B043004008B501F005F903687E
:401200000C2B00D1FEE7FEE708B5094B1A681044084BC31AB3F57A7F02DC054B186005E001F0F2F80C2303604FF0FF32104608BD0881FF1F589AFF1F08B5104E104D16E07C
:4012400029686B68AC68002204E051F8040B43F8040B0432A242F8D1E868002203E0002143F8041B04328242F9D11035013E002EE6D101F0CFF8FFF713F9FEE701000000CE
:401280009C31000008B5104A104B1A60104A136843F40073136000230AE0032B03D80D4A52F8231000E00C490C4A42F8231001332F2BF2D90A4B1A780A4B1A70074A0A4BDC
:4012C0001A60FFF711FF08BD0004FA050CED00E014ED00E000000000F91100000080FF1FBC760040C080FF1F08ED00E038B5EFF3108572B603284ED82D4B53F82030002B84
:401300004BD02B4A013B42F820302A4B53F82030032B07D10222274B43F820200022264B43F8202000F09AFA244B1B68002B36D1234B1C6800F070FAB0F1FF3F31D0214BE2
:4013400053F82020204B1B689A422CD9B4F1FF3F03D00221174A42F824101C4A52F820201343194A13600022124B43F8202000F00FFA174B53F820304BB10024144B43F8A5
:40138000204040F0004000F035FE20460CE000F031FE002008E0032006E0042004E0002002E0002000E0002085F3108838BD00BF5881FF1FFC81FF1FE483FF1F8084FF1F91
:4013C000E881FF1FC02E0000FC83FF1FA02E0000C483FF1FEFF3108372B6114A1168114A126882B9B1F1FF3F0FD00F4A52F821206AB110B40D4C54F8212022EA000044F877
:401400002100002007E0022002E0022000E0012083F31088704783F3108810BC704700BFE881FF1F8084FF1F802E0000E483FF1F03280FD80B4B53F820306BB10A4B53F8AD
:401440002030032B0AD059B1084B53F820300B60002070470320704701207047072070470E207047802E0000FC81FF1FE483FF1F38B5EFF3108472B6032853D8324B53F8EE
:401480002030002B50D0314B53F82030032B4DD02F4D55F820200A4345F820202D4A52F82020114244D0012B44D10222274B43F8202000F0D3F9284B1B68002B3CD1274B46
:4014C0001D6800F0A9F9B0F1FF3F37D0244B53F82020244B1B689A4232D9B5F1FF3F03D002211A4A42F825101F4A52F8202013431C4A13600022154B43F8202000F048F91F
:401500001A4B53F820304BB10025184B43F8205040F0004000F06EFD284612E000F06AFD00200EE003200CE001200AE0072008E0002006E0002004E0002002E0002000E0B7
:40154000002084F3108838BD802E0000FC81FF1FE483FF1FD483FF1F8084FF1FE881FF1FC02E0000FC83FF1FA02E0000C483FF1F38B5EFF3108472B63A4B1D683A4B1B6800
:40158000002B63D1B5F1FF3F62D0384B53F82530B3F1FF3F5ED1364B53F82530002B5BD0344B53F82530034258D1334B43F825000122324B43F82520314B53F8250031491A
:4015C0000B6823EA00030B602F4B43F825202F4B53F82520234B1A6000F01EF9B0F1FF3F06D02B4B53F82020264B1B689A420DD81C4B1868B0F1FF3F03D000221F4B43F83F
:40160000202040F0004000F0F5FC1AE000211B4A42F820101A4A52F820201343194A136000F0B6F8184B53F8203043B10022164B43F8202040F0004000F0DCFC01E000F07E
:40164000D9FC00200C4B43F8250008E0022006E0022004E0062002E0012000E0002084F3108838BDE881FF1F8084FF1F1481FF1F802E0000E483FF1FD483FF1FFC81FF1FFC
:40168000A02E0000FC83FF1FC483FF1FEC81FF1FC02E000038B5334B1A68334B1B68EFF3108572B6012851D8304951F8201000294ED153B9B2F1FF3F4CD02D4951F822409E
:4016C0002C4951F820108C4246D893B12A4951F82040EFF3118121B1A14204D32CB1002104E0002102E0012100E0012111F0FF0F34D1EFF31181214C44F820101E4951F896
:401700002010EFF3118409B18C4200D80CB981F31188044613B100F00BFD0246184B53F82200184941F8240043F8224001220F4B43F82420144A1168144B43F824100D4B5E
:4017400053F824300B431360002008E0032006E0012004E0012002E0012000E0012085F3108838BDE881FF1F8084FF1FBC83FF1FC02E0000782E0000702E00004098FF1F9B
:401780001481FF1F0C81FF1FFC83FF1FA884FF1FF0B4184B19880B0A174AD356B3F1FF3F01D1535601E008335BB2144D55F82320134850F82200134E56F8224045F82340B0
:4017C000114D2F6846F822702A60B4F1FF3F09D10E4A42F82340012202FA03F321EA0301044B19800A4B19680A4A42F820101860F0BC7047F883FF1F742F0000A881FF1FEA
:401800008884FF1F3881FF1FF483FF1F6881FF1FE881FF1FEC81FF1F0C4B1A88130A0C49CB56B3F1FF3F01D18B5601E008335BB2B3F1FF3F06D0074A52F82320064B53F87D
:40184000220070474FF0FF30704700BFF883FF1F742F0000A881FF1F8884FF1F30B4144B53F82020134C2368134951F823502560124C44F823004FF0FF3441F82340104985
:4018800051F82210A1420AD10E4951F820400E480188214301800D4941F8223002E0064840F82130064941F8223030BC704700BF4881FF1FF483FF1F3881FF1F8884FF1FD8
:4018C0006881FF1FC02E0000F883FF1FA881FF1F10B150F8210070474FF0FF30704700BF0122014B1A60FEE77C84FF1F70B50546124B53F8306000241CE0104B03EBC50389
:4019000021465868FFF7E4FF0D4A52F82030013B42F820300B4B53F82030032B07D10222084B43F820200022074B43F82020FFF795FF0134B442E0D370BD00BF5C2E00003A
:401940005881FF1FFC81FF1FE483FF1F18B908B5FFF7CCFF08BD7047184B194ADA62194A9A63EFF3108272B6174B1B6813BB10B5044600F015F9154B1C600122124B1A60F1
:401980002046FFF7E3FFFFF747FFB0F1FF3F0ED00F4B53F820300F4A11680B43136000220D4B43F82020FFF7F3FE00F023FB62B6FFF796FF82F31088072070470080FF1F52
:4019C000D91F00009D1F00007C84FF1F3898FF1FA02E0000FC83FF1FFC81FF1F08B5EFF3108272B60D4B19680D4B1B6863B90D4B53F82130B3F1FF3F08D14FF0FF300A4B86
:401A000043F82100002002E0022000E0062010B9084600F048FB82F3108808BDE881FF1F8084FF1F1481FF1F2881FF1F70B54D4B1B684D4A1268EFF3108572B642B14B4B68
:401A40001B68B3F1FF3F01D0043301E04FF0FF33012872D8464951F8201000296FD0454951F8231088426CD152B9B3F1FF3F6AD0414C54F82360414C54F82040A64264D8D3
:401A800092B13F4C54F82060EFF3118424B1A64204D82EB1002404E0002402E0012400E0012414F0FF0F52D1364C54F8204084F31188354C54F821402E4941F82340002190
:401AC0002B4B43F82010314B53F82010304B1960002A3ED1234B1C68FFF79EFEB0F1FF3F39D0254B53F82030294A1268934234D9B4F1FF3F03D00221264B43F82410264B71
:401B000053F820301343224A13600022214B43F82020FFF73DFE214B53F820304BB100241E4B43F8204040F0004000F063FA204614E000F05FFA002010E003200EE00520CA
:401B40000CE005200AE0012008E0012006E0012004E0002002E0002000E0002085F3108870BD00BFE881FF1F8084FF1F4C82FF1FBC83FF1F1481FF1FC02E0000782E0000FE
:401B8000702E00004098FF1F0C81FF1FA884FF1FFC83FF1FFC81FF1FA02E0000C483FF1F38B50A4B1D68EFF3108472B600F0E4F9074B2B640121002000F0C6F9054A136863
:401BC00043F00103136084F3108838BD08ED00E04D02000000E100E0014B1B681864704708ED00E04001C0B2014B1870704700BF00E400E00122014B1A60704700E100E059
:401C00000122014B1A60704780E100E010B50446FFF7F6FF2046FFF7DFFF0720FFF7E2FFFFF7E8FF10BD00BF7222074B1A70202201331A7006225F3B1A70472210331A7036
:401C40000222B33B1A7070478965004010B500F04FFA04460A4A137843F0200313700132137843F010031370A2F58172137843F01003137000F034F9204600F03DFA10BD07
:401C80009965004008B5054B1B7823B9FFF7CCFF0122024B1A70FFF7D9FF08BD0484FF1F014B1878704700BF4A650040034B1B7813F0040FFAD1024B1870704768640040DB
:401CC0004864004038B5074B1B782BB938BDFFF7EDFF0134A4B201E005460024285D0028F5D138BD0484FF1F08B500F001FA0A4A137843F020031370023A137843F0100315
:401D00001370FE32137843F01003137000F0F4F900F0F4F808BD00BF9C640040014B1878704700BF6A640040014B1878704700BF68650040034B1B7813F0040FFAD0024B52
:401D4000187070476A6400404964004008B501E00A4B1B780A4B1B7813F0200FF8D100F0C7F9084B1A7842F001021A701A7802F0FE021A7000F0C0F908BD00BF5964004034
:401D8000686500409964004008B50F22064B1A70FFF7DCFFFFF7C2FFFFF7C6FF0023034A1370FE32137008BD8C6400408A64004008B5054B1B7823B9FFF7E6FF0122024B3D
:401DC0001A70FFF791FF08BD0684FF1F044A137803F0F703C00000F00800184310707047C0510040044A137803F0EF03000100F0100018431070704730510040024A13781C
:401E000043F080031370704779640040014B1880704700BF14680040014B1880704700BF94680040014B1880704700BF54680040014B1870704700BF8B640040014B18783E
:401E4000704700BF6B640040014B188880B27047B468004008B501E0FFF7F6FFFFF7EEFF10F0100FF8D108BD10B5144A137803F0C00343F0090313702132137843F0010358
:401E800013700F4C237843F001032370FF20FFF7BDFFFF20FFF7C0FF7F20FFF7C3FF0020FFF7C6FF00F024F9237843F01003237000F022F9FFF7CEFF10BD00BF7964004010
:401EC0009B64004008B5054B1B7823B9FFF7CCFF0122024B1A70FFF791FF08BD0784FF1F054A137843F0040313701032137843F004031370704700BFA2430040054A1378E2
:401F000043F0010313701032137843F001031370704700BFA243004001BE704710B5044605E0084B186800F0DBF8A4F50044B4F5004FF6D8034B586800FB04F000F0D0F86D
:401F400010BD00BF3C82FF1F38B504460D46072902D90020FFF7E0FF1F2C02D90020FFF7DBFF04F01F0000F1604000F564406D01EDB2057038BD00BF18484FF47F01026859
:401F80000A43026016486FF07F4102680A400260704714484FF080510160704772B611484FF00061016000F0E5F80F48006800F067F958B10C4800684FF080730B4A0C49A5
:401FC0000FB40FB46FF00600004700BF6FF0060062B6004762B600DF08B0704720ED00E01CED00E004ED00E08484FF1FF51F0000D51F0000411C8900154A11440968154A87
:40200000136899421AD0F0B444464D4656465F46F0B400B5104C9B002344EFF308851D60116089002144096881F3088802BC8E46F0BCA046A946B246BB46F0BC002806DB26
:4020400000B500F011F902BC8E46FFF7D3BF7047F02E00000084FF1F3082FF1FF0B444464D4656465F46F0B400B5EFF3038308B48000174901440968164A0244EFF3088328
:40208000136088471448804704BC4FF08070024382F3038801BC8646F0BCA046A946B246BB46F0BC704780000A4901440A6882F3088804BC4FF08070024382F3038808BC9A
:4020C0009E46F0BCA046A946B246BB46F0BC7047D02E00009884FF1FDD210000000000000230800803D000BF01380046FCD17047EFF3108072B6704780F31088704700BFC8
:4021000008B5FFF745FB084B53F8203043B10022054B43F8202040F00040044B186008BD024B186008BD00BFC483FF1F8484FF1F0D4B1A680D4B1B68B3F1FF3F05D100217F
:402140000A4B19600A4B1A600AE0094951F823108A4205D9013305490B60054941F82320024B1868043070478084FF1F4C82FF1F3C98FF1F10B5FFF74FFB124B1B68B0F16B
:40218000FF3F1AD0104A52F82010104A1268914213D9B3F1FF3F03D002240D4941F8234000210B4B43F820100A4B53F820301A43064B1A60FFF7A4FF10BD43F00043064A9D
:4021C000136010BDE881FF1FC02E0000FC83FF1FFC81FF1FA02E00008484FF1F10B572B6034B1C68204600F00DF82046FFF75BFFE881FF1F08B5024B1868FFF72FFF08BD34
:40220000E881FF1F10B4124B53F820304FF0FF310BE0104A52F823200D4941F8202000240D4941F8234019461346B3F1FF3FF0D1B1F1FF3F09D0094B53F82120084B1A6074
:40224000084B53F8213083F31188084610BC70471481FF1F0C81FF1FBC83FF1FA884FF1FFC83FF1F4098FF1F08B562B6FFF7C2FF72B600F041F8014B186808BD8484FF1F63
:4022800000280BDA20F000400130054B53F82000044B1B68181A18BF0120704701207047F02E00000084FF1F054B53F82020054B53F820309A4201D1012070470020704767
:4022C0005881FF1F902E000008B5FFF761FA084B53F8203043B10022054B43F8202040F00040044B186008BD024B186008BD00BFC483FF1F8484FF1F38B5364B1C68002268
:40230000354B1A60354A52F82430013342F82430334B53F824502046FFF7C6FF012801D0A54204D103222F4B43F8242003E002222C4B43F824202C4B53F824102B4A1368AF
:4023400023EA010313602A4B53F82440214B1C60B5F1FF3F0FD0234B53F82530032B07D10222204B43F825200022224B43F825202846FFF773FAFFF74FFAB0F1FF3F0BD10D
:40238000B4F1FF3F03D00022164B43F8242044F00044194B1C6038BD184B53F82020134B1B689A4208D800220E4B43F8242044F00044114B1C6038BD00210A4A42F820106F
:4023C000094A52F820201343084A1360FFF77CFF38BD00BFE881FF1F489AFF1F5881FF1F2881FF1FFC81FF1FA02E0000FC83FF1FEC81FF1FE483FF1F8484FF1FC02E000051
:402400000A22002100F09AB9014B1868704700BFB082FF1F0E4B70B51E460E4C0025E41AA410A54204D056F8253098470135F8E700F0A2FE084B094C1E46E41AA4100025A2
:40244000A54204D056F8253098470135F8E770BD8431000084310000843100008C310000024B0146186800F06BB800BFB082FF1F024B0146186800F017B800BFB082FF1FE9
:4024800010B5431E0A44914204D011F8014B03F8014FF8E710BD03460244934202D003F8011BFAE77047000038B50546002944D051F8043C0C1F002BB8BFE41800F048F9D8
:4024C0001E4A1368114613B96360146030E0A3420DD92268A018834201BF18685B681218226063600C6023E0A24203D813465A68002AF9D118681918A1420BD121680144D0
:4025000058188242196013D110685268014419605A600DE002D90C232B6009E021686018824201BF106852680918216062605C602846BDE8384000F00CB938BD0C84FF1F3B
:4025400070B5CD1C25F0030508350C2D38BF0C25002D064601DBA94202D90C23336046E000F0F6F8234B1C681A462146A1B10B685B1B0ED40B2B03D90B60CC18CD501EE05F
:402580008C420BBF63684B681360636018BF0C4615E00C464968E9E7174C23681BB9304600F02CF820602946304600F027F8431C18D0C41C24F00304A0420DD12560304621
:4025C00000F0C7F804F10B00231D20F00700C31A0ED05A42E25070BD211A304600F00EF80130EBD10C233360304600F0B2F8002070BD00BF0C84FF1F0884FF1F38B5064C16
:402600000023054608462360FEF7FEFD431C02D1236803B12B6038BD509AFF1F10F8012B11F8013B012A28BF9A42F7D0D01A70472DE9F0470F4680463F48D0F800903D46D9
:4026400015F8014B09EB0400407800F0080000F0FF0608B12F46F2E72D2C03D1BD1C7C78012603E02B2C04BF7C78BD1C13B1102B0AD15BE0302C57D1287800F0DF005828EA
:402680004DD16C7810230235002E14BF4FF0004C6FF0004CBCFBF3FA0027384603FB1ACC09EB040E9EF801E01EF0040F01D0303C0BE01EF0030E1BD0BEF1010F0CBF4FF0B1
:4026C000370E4FF0570ECEEB0404A34210DDB7F1FF3F0AD0504506D801D1644503DC03FB0040012701E04FF0FF3715F8014BD7E77B1C0CD1002E4FF0220314BF4FF00040A6
:402700006FF00040C8F800302AB9BDE8F08706B1404272B107B1691E1160BDE8F0873024002BB1D10823AFE70A23ADE7302CA3D0AAE7BDE8F08700BFB482FF1F13460A4628
:40274000014602480068FFF773BF00BFB082FF1F70477047000000000FB103053C3CB203053C3CB306053C3C053C3CB40103C003280804C101C0C2020D00C3028D2AC40252
:402780008DEEC5011A3601C0E0100422070A2E30252A28262E3A00010313E10F16060D2D26232727252D3B000104133A0105290000000000003E5B4F5B3E3E6B4F6B3E1CFD
:4027C0003E7C3E1C183C7E3C181C577D571C1C5E7F5E1C00183C1800FFE7C3E7FF0018241800FFE7DBE7FF30483A060E2629792926407F050507407F05253F5A3CE73C5AEB
:402800007F3E1C1C08081C1C3E7F14227F22145F5F005F5F06097F017F006689956A606060606094A2FFA29408047E040810207E201008082A1C08081C2A08081E10101072
:40284000100C1E0C1E0C30383E3830060E3E0E06000000000000005F00000007000700147F147F14242A7F2A12231308646236495620500008070300001C22410000412287
:402880001C002A1C7F1C2A08083E080800807030000808080808000060600020100804023E5149453E00427F400072494949462141494D331814127F1027454545393C4AB1
:4028C00049493141211109073649494936464949291E0000140000004034000000081422411414141414004122140802015909063E415D594E7C1211127C7F494949363E59
:40290000414141227F4141413E7F494949417F090909013E414151737F0808087F00417F41002040413F017F081422417F404040407F021C027F7F0408107F3E4141413E8C
:402940007F090909063E4151215E7F09192946264949493203017F01033F4040403F1F2040201F3F4038403F631408146303047804036159494D43007F41414102040810FD
:4029800020004141417F04020102044040404040000307080020545478407F284444383844444428384444287F385454541800087E090218A4A49C787F0804047800447DC3
:4029C00040002040403D007F1028440000417F40007C047804787C080404783844444438FC1824241818242418FC7C08040408485454542404043F44243C4040207C1C20E4
:402A000040201C3C4030403C44281028444C9090907C4464544C4400083641000000770000004136080002010204023C2623263C1EA1A161123A4040207A385454555921C9
:402A4000555579412254547842215554784020545579400C1E5272123955555559395454545939555454580000457C410002457D420001457C407D1211127DF0282528F02F
:402A80007C545545002054547C547C0A097F4932494949323A4444443A324A4848303A4141217A3A42402078009DA0A07D3D4242423D3D4040403D3C24FF2424487E49438A
:402AC000662B2FFC2F2BFF0929F620C0887E090320545479410000447D413048484A32384040227A007A0A0A727D0D19317D2629292F28262929292630484D40203808083F
:402B0000080808080808382F10C8ACBA2F102834FA00007B000008142A142222142A14085500550055AA55AA55AAFF55FF55FF000000FF00101010FF00141414FF001010E1
:402B4000FF00FF1010F010F0141414FC001414F700FF0000FF00FF1414F404FC141417101F10101F101F1414141F00101010F0000000001F101010101F10101010F01000C2
:402B80000000FF101010101010101010FF10000000FF140000FF00FF00001F10170000FC04F414141710171414F404F40000FF00F714141414141414F700F71414141714DB
:402BC00010101F101F141414F4141010F010F000001F101F0000001F14000000FC140000F010F01010FF10FF141414FF141010101F00000000F010FFFFFFFFFFF0F0F0F00B
:402C0000F0FFFFFF0000000000FFFF0F0F0F0F0F3844443844FC4A4A4A347E02020606027E027E0263554941633844443C04407E201E2006027E020299A5E7A5991C2A4947
:402C40002A1C4C7201724C304A4D4D303048784830BC625A463D3E494949007E0101017E2A2A2A2A2A44445F444440514A444040444A51400000FF0103E080FF0000080861
:402C80006B6B083612362436060F090F06000018180000001010003040FF0101001F01011E00191D1712003C3C3C3C000000000054465400427566666572206F7665726652
:402CC0006C6F77000A00000055415254207374617274656400000000203A2000446174612072656365697665642066726F6D20554152540050617273656420746F6B656EFA
:402D0000206F662074797065204A534D4E5F554E444546494E45443A2000000050617273656420746F6B656E206F662074797065204A534D4E5F4F424A4543543A200000DA
:402D400050617273656420746F6B656E206F662074797065204A534D4E5F41525241593A2000000050617273656420746F6B656E206F662074797065204A534D4E5F535477
:402D800052494E473A20000050617273656420746F6B656E206F662074797065204A534D4E5F5052494D49544956453A200000000D0A000050617273656420746865204A07
:402DC000534F4E2064617461207375636365737366756C6C790A000072656400626C756500000000677265656E0000007768697465000000626C61636B0000006D6167652E
:402E00006E74610079656C6C6F770000005100401000205100401000405100403000F05100401000000001400010001401400006801A0140800100400140000A004C01409F
:402E40000002005001402000605200403C0600480600001A014044060048800001000000642E00000300000000010000000000002F000000000000000001000020000000C9
:402E8000010000000100000000000000000000000100000001000000010000000100000020000000080000000100000080000000010000000200000000000000010000005F
:402EC00020000000080000000100000040000000E5040000AD05000021060000B9040000F5210000F5210000F5210000F5210000000000000100000002000000000000008F
:402F00000000000065765F72656365697665640065765F64726177696E675F636F6D6D616E64000072696E676275666665725F726573000064726177696E675F7265730044
:402F400074736B5F6A736F6E5F7061727365720074736B5F686D690074736B5F6261636B67726F756E64000074736B5F696E697400000000FF0001010202020203030303C0
:402F800003030303040404040404040404040404040404040505050505050505050505050505050505050505050505050505050505050505060606060606060606060606DD
:402FC0000606060606060606060606060606060606060606060606060606060606060606060606060606060606060606060606060606060607070707070707070707070745
:4030000007070707070707070707070707070707070707070707070707070707070707070707070707070707070707070707070707070707070707070707070707070707D0
:403040000707070707070707070707070707070707070707070707070707070707070707070707070707070707070707070707070707070743000020202020202020202081
:403080002828282828202020202020202020202020202020202020881010101010101010101010101010100404040404040404040410101010101010414141414141010170
:4030C000010101010101010101010101010101010101101010101010424242424242020202020202020202020202020202020202020210101010200000000000000000004A
:40310000000000000000000000000000000000000000000000000000000000000000000000000000000000000000000000000000000000000000000000000000000000008F
:403140000000000000000000000000000000000000000000000000000000000000000000000000000000000000000000000000000000000000000000F8B500BFF8BC08BC6B
:403180009E4670474D00000085120000F8B500BFF8BC08BC9E46704729000000B0310000C880FF1FF0010000A0170000000000000000000007000000D82D00001F000000CE
:4031C000DC2D000000F80000E42D0000E0070000EC2D0000FFFF0000F42D000000000000FC2D00001FF80000042E0000FF070000589AFF1FFFFFFFFFFFFFFFFFFFFFFFFF22
:40320000FFFFFFFFFFFFFFFFFFFFFFFFFFFFFFFFFFFFFFFFFFFFFFFFFFFFFFFFFFFFFFFF010000000200000003000000FFFFFFFF050000000300000000000000060000009E
:4032400001000000010000000100000001000000FFFFFFFFFFFFFFFFFFFFFFFFFFFFFFFFFFFFFFFFFFFFFFFFFFFFFFFFFFFFFFFFFFFFFFFFFFFFFFFFFFFFFFFFFFFFFFFF7A
:40328000FFFFFFFFFFFFFFFFFFFFFFFFFFFFFFFFFFFFFFFFFFFFFFFFFFFFFFFFFFFFFFFFFFFFFFFFFFFFFFFFFFFFFFFFFFFFFFFFFFFFFFFFFFFFFFFFFFFFFFFFFFFFFFFF4E
:4032C000FFFFFFFFFFFFFFFFFFFFFFFFFFFFFFFFFFFFFFFFFFFFFFFFFFFFFFFFFFFFFFFFFFFFFFFF03000000030000000300000003000000042F0000102F0000242F000021
:40330000342F0000402F0000502F0000582F0000682F0000489AFF1F000000002894FF1F1098FF1F0000E02EC05D00001800000000366E01FFFFFFFF00000000000000009A
:4033400000000000000000000000000000000000000000000000000074300000000000000000000000000000000000000000000000000000000000000000000000000000A9
:403380000000000000000000000000000000000000000000000000005082FF1F76300000000000000000000000000000000000000000000000000000000000000000000077
:4033C00000000000000000000000000000000000000000000000000000000000000000000000000000000000000000000000000000000000000000000000000000000000CD
:40340000000000000000000000000000000000000000000000000000000000000000000000000000000000000000000000000000000000000000000000000000000000008C
:40344000000000000000000000000000000000000000000000000000000000000000000000000000000000000000000000000000000000000000000000000000000000004C
:40348000000000000000000000000000000000000000000000000000000000000000000000000000000000000000000000000000000000000000000000000000000000000C
:020000040003F7
:0200000480007A
:400000000364004002650040010701405F08014043090140640A0140400B01404B0C0140380D0140011501404718014046190140211A01404B1B01400240014001410140DB
:4000400003420140024301400444014002450140014601400148014003490140084D01400550014001510140880F8B0D8C0F89728A38EA200205030209020A080D02130128
:4000800014031501160C180319011A041D02200A220423012403250226042B012F02320F330237013A083F444034410245E047BC483249FF4AFF4BFF4EF04F44500C54010D
:4000C000580459045A045B045C025D225F0166C06A406B02840787018C048E02900292049F01A407AC01B401B606B701BF40C045C106C220C5DEC6FBC70CC81FC9FFCAFF38
:40010000CBFFCC22CEF0CF08D004D280D804D904DA04DB04DC02DD10DF01E2C0E440E501E610E711E8C0E901EB11EC40ED01EE40EF0100080180051209010E200F081002CA
:4001400011041608171519801A041D081E201F042280264027102C602D022E102F0A318034083610374539083C803D103F0140444448450849084A094B014C404D0152546C
:40018000570D5D015E98724090449110948096C097289B459D0A9E46A060A20CA302A601A780B240C055C268C435CAF0CCF8CEB2D0E5D20CD6F0EA200502070D0802092DC5
:4001C0000D120F04110D1201132015111702192D1D2D2112230826062D2D31203204330F34013520360237103B083F514020410149FF4AFF4BFF4DA04F0450185409580433
:4002000059045A045B045C015D015F01604062C06440654066C068C06AC06CC06EC083088A068C01911C93039501970E9E04A303A602A71CA901AB16B002B204B401B51A7C
:40024000B70FBBA0BE14C060C101C5D0C612C80EC9FFCAFFCBFFCDAFCE0FCF04D018D405D804D904DA04DB04DC21DD11DF01E040E2C0E440E540E6C0E8C0EAC0ECC0EEC080
:40028000001004800520080809080A400D80121016141710181019A01A041D081E882004210422012301270529402B802D022F143020320833423705384039183E02418009
:4002C000420445804D215580561059085A825B105C085D8163019040911099409B409E44A060A208A302A601AD01C0C2C288C424CAE9CCCFCE8ED01CD220D6DFD808EC0292
:40030000000801020202030D0403060408020C0A10011109120813061503170C18081A021C0C1E03240828022A082C0A2D052F0A300F310F3A023B025602572058045904A6
:400340005B045F01806083408404850A8730880189048B228C048D228F04900A9109921093F2940795879638971899229B049C569D269E09A004A13AA3C5A404A504AA048D
:40038000AC04AD26B1C0B27FB307B538B808BB20D804D904DF01001402400302040206050720084009080A400C600E421020111112011510174818101C401D011E4020043E
:4003C00021092208232825012602284029402A042E403020310933403609380439523D024D804E0265806C216D516F427440754076019410A810C0FFC2DDC4EFCA1BCCCF96
:40040000CE8FD810EC01E6020002011402040C080E01111C1302140D150C171119101B0C1F032110240D25092710311F320C340338283E045440580459045B045C225F018C
:40044000810184338518860C883F89088C02900191279318940397269A239C1F9D109E20A008A119A322A404A701A80CA93FAC1CAD39AE23AF04B010B11FB338B40FB62C9E
:40048000BAA0BB02BE01D602D713D804D904DB04DC22DD20DF01002401A0050206400701084009010A150E201081120213181704180419011A011D181F1021042202274028
:4004C000284129202B102E022F103084330236103745382839023F02580459015A046618670168066904709473188C048E408F02904092049301950C9680972099809A1C8F
:400500009B059D129E02A298A301A406A581A601A780C097C22FC42FCACFCCFBCE87D601D87088198A228C2E8E5198709C249E48A804AC80B280B478B607B820BA80BE04E6
:40054000C003C740C9FFCA07CBFFCC40CD20CEF0CF05D008D804DA04DD02DF01E040E1A8E240E320000801800440070408400A540E0A10011106131016041740180119011F
:400580001A101B101D041E0A1F802020210222402314280129082B80304031023208330438443B10400141044244450849084B1051805642590162806344810487408901FB
:4005C0008D019044910C924495029690984199809A049B409E42A004A108A288A410A581A601A790C0C5C2CFC4CFCA0BCC0BCE0ED04FD204D601D80DE4013220CC10A62034
:400600005310A620D420A620B31070047E01DC01DE049602A804AE01A6208620A620E6401220788080808A208E20C408DC01E20C00070C070E0110051C0500031084000008
:400640004000000000000000E00200000002000082044400030000014300A804000003000000030221005404E000000103000000000003020302E00010010C04000200081F
:400680000000405042060300010E0C0005FFFFFF62A0F0410C00000018000400040404042222000100000000000040020010301000101012000000000000000000000000CE
:4006C00000000000800040BCBC00B40000000000000B0B000000000000181800080000000000000000000000000000000000000000000000000000000000000000000000C0
:4007000000000000000000000000000000000000000000000000000000000000000000000000000000000000000000000000000000000000000000000000000000000000B9
:400740000000000000000000000000000000000000000000000000000000000000000000000000000000000000000000000000000000000000000000000000000000000079
:400780000000000000000000000000000000000000000000000000000000000000000000000000000000000000000000000000000000000000000000000000000000000039
:4007C00000000000000000000000000000000000000000000000000000000000000000000000000000000000000000000000000000000000000000000000000000000000F9
:0200000490006A
:0400000000004005B7
:0200000490105A
:04000000BC90ACAF55
:0200000490303A
:02000000849CDE
:0200000490402A
:4000000000000000000000000000000000000000000000000000000000000000000000000000000000000000000000000000000000000000000000000000000000000000C0
:400040000000000000000000000000000000000000000000000000000000000000000000000000000000000000000000000000000000000000000000000000000000000080
:400080000000000000000000000000000000000000000000000000000000000000000000000000000000000000000000000000000000000000000000000000000000000040
:4000C0000000000000000000000000000000000000000000000000000000000000000000000000000000000000000000000000000000000000000000000000000000000000
:0200000490501A
:0C00000000012E16106900012E2A950543
:00000001FF